{
  "contractName": "OrderManagement",
  "abi": [
    {
      "inputs": [
        {
          "internalType": "address",
          "name": "accessControlAddress",
          "type": "address"
        },
        {
          "internalType": "address",
          "name": "catalogAddress",
          "type": "address"
        }
      ],
      "stateMutability": "nonpayable",
      "type": "constructor"
    },
    {
      "anonymous": false,
      "inputs": [
        {
          "indexed": true,
          "internalType": "uint256",
          "name": "orderId",
          "type": "uint256"
        },
        {
          "indexed": true,
          "internalType": "address",
          "name": "buyer",
          "type": "address"
        },
        {
          "indexed": true,
          "internalType": "address",
          "name": "vendor",
          "type": "address"
        },
        {
          "indexed": false,
          "internalType": "uint256",
          "name": "productId",
          "type": "uint256"
        },
        {
          "indexed": false,
          "internalType": "uint256",
          "name": "quantity",
          "type": "uint256"
        },
        {
          "indexed": false,
          "internalType": "uint256",
          "name": "totalPrice",
          "type": "uint256"
        },
        {
          "indexed": false,
          "internalType": "string",
          "name": "metadataURI",
          "type": "string"
        }
      ],
      "name": "OrderCreated",
      "type": "event"
    },
    {
      "anonymous": false,
      "inputs": [
        {
          "indexed": true,
          "internalType": "uint256",
          "name": "orderId",
          "type": "uint256"
        },
        {
          "indexed": false,
          "internalType": "enum OrderManagement.OrderStatus",
          "name": "status",
          "type": "uint8"
        }
      ],
      "name": "OrderStatusUpdated",
      "type": "event"
    },
    {
      "inputs": [],
      "name": "accessControl",
      "outputs": [
        {
          "internalType": "contract AccessControl",
          "name": "",
          "type": "address"
        }
      ],
      "stateMutability": "view",
      "type": "function",
      "constant": true
    },
    {
      "inputs": [],
      "name": "catalog",
      "outputs": [
        {
          "internalType": "contract ProductCatalog",
          "name": "",
          "type": "address"
        }
      ],
      "stateMutability": "view",
      "type": "function",
      "constant": true
    },
    {
      "inputs": [
        {
          "internalType": "uint256",
          "name": "productId",
          "type": "uint256"
        },
        {
          "internalType": "uint256",
          "name": "quantity",
          "type": "uint256"
        },
        {
          "internalType": "string",
          "name": "metadataURI",
          "type": "string"
        }
      ],
      "name": "createOrder",
      "outputs": [
        {
          "internalType": "uint256",
          "name": "orderId",
          "type": "uint256"
        }
      ],
      "stateMutability": "nonpayable",
      "type": "function"
    },
    {
      "inputs": [
        {
          "internalType": "uint256",
          "name": "orderId",
          "type": "uint256"
        },
        {
          "internalType": "enum OrderManagement.OrderStatus",
          "name": "status",
          "type": "uint8"
        }
      ],
      "name": "updateStatus",
      "outputs": [],
      "stateMutability": "nonpayable",
      "type": "function"
    },
    {
      "inputs": [
        {
          "internalType": "uint256",
          "name": "orderId",
          "type": "uint256"
        }
      ],
      "name": "cancelOrder",
      "outputs": [],
      "stateMutability": "nonpayable",
      "type": "function"
    },
    {
      "inputs": [
        {
          "internalType": "uint256",
          "name": "orderId",
          "type": "uint256"
        }
      ],
      "name": "getOrder",
      "outputs": [
        {
          "components": [
            {
              "internalType": "uint256",
              "name": "id",
              "type": "uint256"
            },
            {
              "internalType": "address",
              "name": "buyer",
              "type": "address"
            },
            {
              "internalType": "address",
              "name": "vendor",
              "type": "address"
            },
            {
              "internalType": "uint256",
              "name": "productId",
              "type": "uint256"
            },
            {
              "internalType": "uint256",
              "name": "quantity",
              "type": "uint256"
            },
            {
              "internalType": "uint256",
              "name": "totalPrice",
              "type": "uint256"
            },
            {
              "internalType": "enum OrderManagement.OrderStatus",
              "name": "status",
              "type": "uint8"
            },
            {
              "internalType": "string",
              "name": "metadataURI",
              "type": "string"
            }
          ],
          "internalType": "struct OrderManagement.Order",
          "name": "",
          "type": "tuple"
        }
      ],
      "stateMutability": "view",
      "type": "function",
      "constant": true
    }
  ],
  "bytecode": "0x60a0604052600180553480156200001557600080fd5b50604051620022683803806200226883398181016040528101906200003b919062000207565b81600073ffffffffffffffffffffffffffffffffffffffff168173ffffffffffffffffffffffffffffffffffffffff1603620000ae576040517f08c379a0000000000000000000000000000000000000000000000000000000008152600401620000a590620002af565b60405180910390fd5b8073ffffffffffffffffffffffffffffffffffffffff1660808173ffffffffffffffffffffffffffffffffffffffff168152505050600073ffffffffffffffffffffffffffffffffffffffff168173ffffffffffffffffffffffffffffffffffffffff160362000155576040517f08c379a00000000000000000000000000000000000000000000000000000000081526004016200014c9062000321565b60405180910390fd5b806000806101000a81548173ffffffffffffffffffffffffffffffffffffffff021916908373ffffffffffffffffffffffffffffffffffffffff160217905550505062000343565b600080fd5b600073ffffffffffffffffffffffffffffffffffffffff82169050919050565b6000620001cf82620001a2565b9050919050565b620001e181620001c2565b8114620001ed57600080fd5b50565b6000815190506200020181620001d6565b92915050565b600080604083850312156200022157620002206200019d565b5b60006200023185828601620001f0565b92505060206200024485828601620001f0565b9150509250929050565b600082825260208201905092915050565b7f416363657373436f6e74726f6c6c65643a207a65726f20616464726573730000600082015250565b600062000297601e836200024e565b9150620002a4826200025f565b602082019050919050565b60006020820190508181036000830152620002ca8162000288565b9050919050565b7f4f726465724d616e6167656d656e743a207a65726f20636174616c6f67000000600082015250565b600062000309601d836200024e565b91506200031682620002d1565b602082019050919050565b600060208201905081810360008301526200033c81620002fa565b9050919050565b608051611efb6200036d600039600081816101610152818161028801526105eb0152611efb6000f3fe608060405234801561001057600080fd5b50600436106100625760003560e01c8063074c09eb1461006757806313007d55146100855780633a1b3d31146100a3578063514fcac7146100bf5780636061f754146100db578063d09ef2411461010b575b600080fd5b61006f61013b565b60405161007c9190610ecd565b60405180910390f35b61008d61015f565b60405161009a9190610f09565b60405180910390f35b6100bd60048036038101906100b89190610f93565b610183565b005b6100d960048036038101906100d49190610fd3565b6103c9565b005b6100f560048036038101906100f09190611065565b6105e7565b60405161010291906110e8565b60405180910390f35b61012560048036038101906101209190610fd3565b610b83565b60405161013291906112ea565b60405180910390f35b60008054906101000a900473ffffffffffffffffffffffffffffffffffffffff1681565b7f000000000000000000000000000000000000000000000000000000000000000081565b6000600260008481526020019081526020016000209050600073ffffffffffffffffffffffffffffffffffffffff168160020160009054906101000a900473ffffffffffffffffffffffffffffffffffffffff1673ffffffffffffffffffffffffffffffffffffffff160361022d576040517f08c379a000000000000000000000000000000000000000000000000000000000815260040161022490611369565b60405180910390fd5b8060020160009054906101000a900473ffffffffffffffffffffffffffffffffffffffff1673ffffffffffffffffffffffffffffffffffffffff163373ffffffffffffffffffffffffffffffffffffffff16148061032157507f000000000000000000000000000000000000000000000000000000000000000073ffffffffffffffffffffffffffffffffffffffff166324d7806c336040518263ffffffff1660e01b81526004016102df9190611398565b602060405180830381865afa1580156102fc573d6000803e3d6000fd5b505050506040513d601f19601f8201168201806040525081019061032091906113eb565b5b610360576040517f08c379a000000000000000000000000000000000000000000000000000000000815260040161035790611464565b60405180910390fd5b818160060160006101000a81548160ff0219169083600381111561038757610386611133565b5b0217905550827fd9a86b644eb5f5b43cc8a700849852481080361c7a4b00ba646d1b46c5585f95836040516103bc9190611493565b60405180910390a2505050565b6000600260008381526020019081526020016000209050600073ffffffffffffffffffffffffffffffffffffffff168160020160009054906101000a900473ffffffffffffffffffffffffffffffffffffffff1673ffffffffffffffffffffffffffffffffffffffff1603610473576040517f08c379a000000000000000000000000000000000000000000000000000000000815260040161046a90611369565b60405180910390fd5b3373ffffffffffffffffffffffffffffffffffffffff168160010160009054906101000a900473ffffffffffffffffffffffffffffffffffffffff1673ffffffffffffffffffffffffffffffffffffffff1614610505576040517f08c379a00000000000000000000000000000000000000000000000000000000081526004016104fc906114fa565b60405180910390fd5b6000600381111561051957610518611133565b5b8160060160009054906101000a900460ff16600381111561053d5761053c611133565b5b1461057d576040517f08c379a00000000000000000000000000000000000000000000000000000000081526004016105749061158c565b60405180910390fd5b60038160060160006101000a81548160ff021916908360038111156105a5576105a4611133565b5b0217905550817fd9a86b644eb5f5b43cc8a700849852481080361c7a4b00ba646d1b46c5585f9560036040516105db9190611493565b60405180910390a25050565b60007f000000000000000000000000000000000000000000000000000000000000000073ffffffffffffffffffffffffffffffffffffffff166384b7964f336040518263ffffffff1660e01b81526004016106429190611398565b602060405180830381865afa15801561065f573d6000803e3d6000fd5b505050506040513d601f19601f8201168201806040525081019061068391906113eb565b6106c2576040517f08c379a00000000000000000000000000000000000000000000000000000000081526004016106b9906115f8565b60405180910390fd5b60008411610705576040517f08c379a00000000000000000000000000000000000000000000000000000000081526004016106fc90611664565b60405180910390fd5b6000838390500361074b576040517f08c379a0000000000000000000000000000000000000000000000000000000008152600401610742906116d0565b60405180910390fd5b60008060009054906101000a900473ffffffffffffffffffffffffffffffffffffffff1673ffffffffffffffffffffffffffffffffffffffff1663b9db15b4876040518263ffffffff1660e01b81526004016107a791906110e8565b600060405180830381865afa1580156107c4573d6000803e3d6000fd5b505050506040513d6000823e3d601f19601f820116820180604052508101906107ed9190611918565b90508060a00151610833576040517f08c379a000000000000000000000000000000000000000000000000000000000815260040161082a906119d3565b60405180910390fd5b848160800151101561087a576040517f08c379a000000000000000000000000000000000000000000000000000000000815260040161087190611a65565b60405180910390fd5b600085826060015161088c9190611ab4565b9050600160008154809291906108a190611af6565b9190505592506040518061010001604052808481526020013373ffffffffffffffffffffffffffffffffffffffff168152602001836020015173ffffffffffffffffffffffffffffffffffffffff1681526020018881526020018781526020018281526020016000600381111561091b5761091a611133565b5b815260200186868080601f016020809104026020016040519081016040528093929190818152602001838380828437600081840152601f19601f82011690508083019250505050505050815250600260008581526020019081526020016000206000820151816000015560208201518160010160006101000a81548173ffffffffffffffffffffffffffffffffffffffff021916908373ffffffffffffffffffffffffffffffffffffffff16021790555060408201518160020160006101000a81548173ffffffffffffffffffffffffffffffffffffffff021916908373ffffffffffffffffffffffffffffffffffffffff160217905550606082015181600301556080820151816004015560a0820151816005015560c08201518160060160006101000a81548160ff02191690836003811115610a5c57610a5b611133565b5b021790555060e0820151816007019081610a769190611d40565b5090505060008054906101000a900473ffffffffffffffffffffffffffffffffffffffff1673ffffffffffffffffffffffffffffffffffffffff1663fe3d07e488886040518363ffffffff1660e01b8152600401610ad5929190611e12565b600060405180830381600087803b158015610aef57600080fd5b505af1158015610b03573d6000803e3d6000fd5b50505050816020015173ffffffffffffffffffffffffffffffffffffffff163373ffffffffffffffffffffffffffffffffffffffff16847f38a13cb7fea33534db4e304bd6133d2ebfeb722db3d6e15392ad8b3c2bded3ae8a8a868b8b604051610b71959493929190611e77565b60405180910390a45050949350505050565b610b8b610dcb565b60006002600084815260200190815260200160002060405180610100016040529081600082015481526020016001820160009054906101000a900473ffffffffffffffffffffffffffffffffffffffff1673ffffffffffffffffffffffffffffffffffffffff1673ffffffffffffffffffffffffffffffffffffffff1681526020016002820160009054906101000a900473ffffffffffffffffffffffffffffffffffffffff1673ffffffffffffffffffffffffffffffffffffffff1673ffffffffffffffffffffffffffffffffffffffff1681526020016003820154815260200160048201548152602001600582015481526020016006820160009054906101000a900460ff166003811115610ca557610ca4611133565b5b6003811115610cb757610cb6611133565b5b8152602001600782018054610ccb90611b6d565b80601f0160208091040260200160405190810160405280929190818152602001828054610cf790611b6d565b8015610d445780601f10610d1957610100808354040283529160200191610d44565b820191906000526020600020905b815481529060010190602001808311610d2757829003601f168201915b5050505050815250509050600073ffffffffffffffffffffffffffffffffffffffff16816040015173ffffffffffffffffffffffffffffffffffffffff1603610dc2576040517f08c379a0000000000000000000000000000000000000000000000000000000008152600401610db990611369565b60405180910390fd5b80915050919050565b60405180610100016040528060008152602001600073ffffffffffffffffffffffffffffffffffffffff168152602001600073ffffffffffffffffffffffffffffffffffffffff16815260200160008152602001600081526020016000815260200160006003811115610e4157610e40611133565b5b8152602001606081525090565b600073ffffffffffffffffffffffffffffffffffffffff82169050919050565b6000819050919050565b6000610e93610e8e610e8984610e4e565b610e6e565b610e4e565b9050919050565b6000610ea582610e78565b9050919050565b6000610eb782610e9a565b9050919050565b610ec781610eac565b82525050565b6000602082019050610ee26000830184610ebe565b92915050565b6000610ef382610e9a565b9050919050565b610f0381610ee8565b82525050565b6000602082019050610f1e6000830184610efa565b92915050565b6000604051905090565b600080fd5b600080fd5b6000819050919050565b610f4b81610f38565b8114610f5657600080fd5b50565b600081359050610f6881610f42565b92915050565b60048110610f7b57600080fd5b50565b600081359050610f8d81610f6e565b92915050565b60008060408385031215610faa57610fa9610f2e565b5b6000610fb885828601610f59565b9250506020610fc985828601610f7e565b9150509250929050565b600060208284031215610fe957610fe8610f2e565b5b6000610ff784828501610f59565b91505092915050565b600080fd5b600080fd5b600080fd5b60008083601f84011261102557611024611000565b5b8235905067ffffffffffffffff81111561104257611041611005565b5b60208301915083600182028301111561105e5761105d61100a565b5b9250929050565b6000806000806060858703121561107f5761107e610f2e565b5b600061108d87828801610f59565b945050602061109e87828801610f59565b935050604085013567ffffffffffffffff8111156110bf576110be610f33565b5b6110cb8782880161100f565b925092505092959194509250565b6110e281610f38565b82525050565b60006020820190506110fd60008301846110d9565b92915050565b61110c81610f38565b82525050565b600061111d82610e4e565b9050919050565b61112d81611112565b82525050565b7f4e487b7100000000000000000000000000000000000000000000000000000000600052602160045260246000fd5b6004811061117357611172611133565b5b50565b600081905061118482611162565b919050565b600061119482611176565b9050919050565b6111a481611189565b82525050565b600081519050919050565b600082825260208201905092915050565b60005b838110156111e45780820151818401526020810190506111c9565b60008484015250505050565b6000601f19601f8301169050919050565b600061120c826111aa565b61121681856111b5565b93506112268185602086016111c6565b61122f816111f0565b840191505092915050565b6000610100830160008301516112536000860182611103565b5060208301516112666020860182611124565b5060408301516112796040860182611124565b50606083015161128c6060860182611103565b50608083015161129f6080860182611103565b5060a08301516112b260a0860182611103565b5060c08301516112c560c086018261119b565b5060e083015184820360e08601526112dd8282611201565b9150508091505092915050565b60006020820190508181036000830152611304818461123a565b905092915050565b600082825260208201905092915050565b7f4f726465724d616e6167656d656e743a206d697373696e67206f726465720000600082015250565b6000611353601e8361130c565b915061135e8261131d565b602082019050919050565b6000602082019050818103600083015261138281611346565b9050919050565b61139281611112565b82525050565b60006020820190506113ad6000830184611389565b92915050565b60008115159050919050565b6113c8816113b3565b81146113d357600080fd5b50565b6000815190506113e5816113bf565b92915050565b60006020828403121561140157611400610f2e565b5b600061140f848285016113d6565b91505092915050565b7f4f726465724d616e6167656d656e743a206e6f7420616c6c6f77656400000000600082015250565b600061144e601c8361130c565b915061145982611418565b602082019050919050565b6000602082019050818103600083015261147d81611441565b9050919050565b61148d81611189565b82525050565b60006020820190506114a86000830184611484565b92915050565b7f4f726465724d616e6167656d656e743a206e6f74206275796572000000000000600082015250565b60006114e4601a8361130c565b91506114ef826114ae565b602082019050919050565b60006020820190508181036000830152611513816114d7565b9050919050565b7f4f726465724d616e6167656d656e743a20616c72656164792070726f6365737360008201527f6564000000000000000000000000000000000000000000000000000000000000602082015250565b600061157660228361130c565b91506115818261151a565b604082019050919050565b600060208201905081810360008301526115a581611569565b9050919050565b7f416363657373436f6e74726f6c6c65643a20636c69656e74206f6e6c79000000600082015250565b60006115e2601d8361130c565b91506115ed826115ac565b602082019050919050565b60006020820190508181036000830152611611816115d5565b9050919050565b7f4f726465724d616e6167656d656e743a207175616e74697479207a65726f0000600082015250565b600061164e601e8361130c565b915061165982611618565b602082019050919050565b6000602082019050818103600083015261167d81611641565b9050919050565b7f4f726465724d616e6167656d656e743a20656d707479206d6574616461746100600082015250565b60006116ba601f8361130c565b91506116c582611684565b602082019050919050565b600060208201905081810360008301526116e9816116ad565b9050919050565b600080fd5b7f4e487b7100000000000000000000000000000000000000000000000000000000600052604160045260246000fd5b61172d826111f0565b810181811067ffffffffffffffff8211171561174c5761174b6116f5565b5b80604052505050565b600061175f610f24565b905061176b8282611724565b919050565b600080fd5b60008151905061178481610f42565b92915050565b61179381611112565b811461179e57600080fd5b50565b6000815190506117b08161178a565b92915050565b600080fd5b600067ffffffffffffffff8211156117d6576117d56116f5565b5b6117df826111f0565b9050602081019050919050565b60006117ff6117fa846117bb565b611755565b90508281526020810184848401111561181b5761181a6117b6565b5b6118268482856111c6565b509392505050565b600082601f83011261184357611842611000565b5b81516118538482602086016117ec565b91505092915050565b600060c08284031215611872576118716116f0565b5b61187c60c0611755565b9050600061188c84828501611775565b60008301525060206118a0848285016117a1565b602083015250604082015167ffffffffffffffff8111156118c4576118c3611770565b5b6118d08482850161182e565b60408301525060606118e484828501611775565b60608301525060806118f884828501611775565b60808301525060a061190c848285016113d6565b60a08301525092915050565b60006020828403121561192e5761192d610f2e565b5b600082015167ffffffffffffffff81111561194c5761194b610f33565b5b6119588482850161185c565b91505092915050565b7f4f726465724d616e6167656d656e743a2070726f6475637420696e616374697660008201527f6500000000000000000000000000000000000000000000000000000000000000602082015250565b60006119bd60218361130c565b91506119c882611961565b604082019050919050565b600060208201905081810360008301526119ec816119b0565b9050919050565b7f4f726465724d616e6167656d656e743a20696e73756666696369656e7420737460008201527f6f636b0000000000000000000000000000000000000000000000000000000000602082015250565b6000611a4f60238361130c565b9150611a5a826119f3565b604082019050919050565b60006020820190508181036000830152611a7e81611a42565b9050919050565b7f4e487b7100000000000000000000000000000000000000000000000000000000600052601160045260246000fd5b6000611abf82610f38565b9150611aca83610f38565b9250828202611ad881610f38565b91508282048414831517611aef57611aee611a85565b5b5092915050565b6000611b0182610f38565b91507fffffffffffffffffffffffffffffffffffffffffffffffffffffffffffffffff8203611b3357611b32611a85565b5b600182019050919050565b7f4e487b7100000000000000000000000000000000000000000000000000000000600052602260045260246000fd5b60006002820490506001821680611b8557607f821691505b602082108103611b9857611b97611b3e565b5b50919050565b60008190508160005260206000209050919050565b60006020601f8301049050919050565b600082821b905092915050565b600060088302611c007fffffffffffffffffffffffffffffffffffffffffffffffffffffffffffffffff82611bc3565b611c0a8683611bc3565b95508019841693508086168417925050509392505050565b6000611c3d611c38611c3384610f38565b610e6e565b610f38565b9050919050565b6000819050919050565b611c5783611c22565b611c6b611c6382611c44565b848454611bd0565b825550505050565b600090565b611c80611c73565b611c8b818484611c4e565b505050565b5b81811015611caf57611ca4600082611c78565b600181019050611c91565b5050565b601f821115611cf457611cc581611b9e565b611cce84611bb3565b81016020851015611cdd578190505b611cf1611ce985611bb3565b830182611c90565b50505b505050565b600082821c905092915050565b6000611d1760001984600802611cf9565b1980831691505092915050565b6000611d308383611d06565b9150826002028217905092915050565b611d49826111aa565b67ffffffffffffffff811115611d6257611d616116f5565b5b611d6c8254611b6d565b611d77828285611cb3565b600060209050601f831160018114611daa5760008415611d98578287015190505b611da28582611d24565b865550611e0a565b601f198416611db886611b9e565b60005b82811015611de057848901518255600182019150602085019450602081019050611dbb565b86831015611dfd5784890151611df9601f891682611d06565b8355505b6001600288020188555050505b505050505050565b6000604082019050611e2760008301856110d9565b611e3460208301846110d9565b9392505050565b82818337600083830152505050565b6000611e56838561130c565b9350611e63838584611e3b565b611e6c836111f0565b840190509392505050565b6000608082019050611e8c60008301886110d9565b611e9960208301876110d9565b611ea660408301866110d9565b8181036060830152611eb9818486611e4a565b9050969550505050505056fea26469706673582212209e10a75e3287ea365b955f98b29d1c2f0b9f2c40add45ac98d01f843636da05464736f6c63430008130033",
  "immutableReferences": {
    "420": [
      {
        "length": 32,
        "start": 353
      },
      {
        "length": 32,
        "start": 648
      },
      {
        "length": 32,
        "start": 1515
      }
    ]
  },
  "source": "// SPDX-License-Identifier: MIT\r\npragma solidity ^0.8.19;\r\n\r\nimport \"./AccessControlled.sol\";\r\nimport \"./ProductCatalog.sol\";\r\n\r\n/**\r\n * @title OrderManagement\r\n * @notice Handles order creation between clients and vendors while keeping\r\n *         lightweight metadata and emitting events that a backend indexer can enrich.\r\n */\r\ncontract OrderManagement is AccessControlled {\r\n    struct Order {\r\n        uint256 id;\r\n        address buyer;\r\n        address vendor;\r\n        uint256 productId;\r\n        uint256 quantity;\r\n        uint256 totalPrice;\r\n        OrderStatus status;\r\n        string metadataURI;\r\n    }\r\n\r\n    enum OrderStatus {\r\n        Pending,\r\n        Approved,\r\n        Shipped,\r\n        Cancelled\r\n    }\r\n\r\n    ProductCatalog public catalog;\r\n    uint256 private _nextOrderId = 1;\r\n    mapping(uint256 => Order) private _orders;\r\n\r\n    event OrderCreated(\r\n        uint256 indexed orderId,\r\n        address indexed buyer,\r\n        address indexed vendor,\r\n        uint256 productId,\r\n        uint256 quantity,\r\n        uint256 totalPrice,\r\n        string metadataURI\r\n    );\r\n    event OrderStatusUpdated(uint256 indexed orderId, OrderStatus status);\r\n\r\n    constructor(address accessControlAddress, address catalogAddress)\r\n        AccessControlled(accessControlAddress)\r\n    {\r\n        require(catalogAddress != address(0), \"OrderManagement: zero catalog\");\r\n        catalog = ProductCatalog(catalogAddress);\r\n    }\r\n\r\n    function createOrder(\r\n        uint256 productId,\r\n        uint256 quantity,\r\n        string calldata metadataURI\r\n    ) external onlyClient returns (uint256 orderId) {\r\n        require(quantity > 0, \"OrderManagement: quantity zero\");\r\n        require(bytes(metadataURI).length != 0, \"OrderManagement: empty metadata\");\r\n\r\n        ProductCatalog.Product memory product = catalog.getProduct(productId);\r\n        require(product.active, \"OrderManagement: product inactive\");\r\n        require(product.quantity >= quantity, \"OrderManagement: insufficient stock\");\r\n        uint256 totalPrice = product.price * quantity;\r\n\r\n        orderId = _nextOrderId++;\r\n        _orders[orderId] = Order({\r\n            id: orderId,\r\n            buyer: msg.sender,\r\n            vendor: product.vendor,\r\n            productId: productId,\r\n            quantity: quantity,\r\n            totalPrice: totalPrice,\r\n            status: OrderStatus.Pending,\r\n            metadataURI: metadataURI\r\n        });\r\n\r\n        catalog.decrementInventory(productId, quantity);\r\n        emit OrderCreated(orderId, msg.sender, product.vendor, productId, quantity, totalPrice, metadataURI);\r\n    }\r\n\r\n    function updateStatus(uint256 orderId, OrderStatus status) external {\r\n        Order storage order_ = _orders[orderId];\r\n        require(order_.vendor != address(0), \"OrderManagement: missing order\");\r\n        require(\r\n            msg.sender == order_.vendor || accessControl.isAdmin(msg.sender),\r\n            \"OrderManagement: not allowed\"\r\n        );\r\n        order_.status = status;\r\n        emit OrderStatusUpdated(orderId, status);\r\n    }\r\n\r\n    function cancelOrder(uint256 orderId) external {\r\n        Order storage order_ = _orders[orderId];\r\n        require(order_.vendor != address(0), \"OrderManagement: missing order\");\r\n        require(order_.buyer == msg.sender, \"OrderManagement: not buyer\");\r\n        require(order_.status == OrderStatus.Pending, \"OrderManagement: already processed\");\r\n        order_.status = OrderStatus.Cancelled;\r\n        emit OrderStatusUpdated(orderId, OrderStatus.Cancelled);\r\n    }\r\n\r\n    function getOrder(uint256 orderId) external view returns (Order memory) {\r\n        Order memory order_ = _orders[orderId];\r\n        require(order_.vendor != address(0), \"OrderManagement: missing order\");\r\n        return order_;\r\n    }\r\n}\r\n",
  "sourcePath": "C:\\Users\\AdamBo\\Desktop\\ecom-web3\\smart-contracts\\contracts\\OrderManagement.sol",
  "compiler": {
    "name": "solc",
    "version": "0.8.19+commit.7dd6d404.Emscripten.clang"
  },
  "schemaVersion": "3.4.16",
  "updatedAt": "2025-12-21T05:33:08.733Z",
  "networkType": "ethereum",
  "devdoc": {
    "kind": "dev",
    "methods": {},
    "title": "OrderManagement",
    "version": 1
  },
  "userdoc": {
    "kind": "user",
    "methods": {},
    "notice": "Handles order creation between clients and vendors while keeping         lightweight metadata and emitting events that a backend indexer can enrich.",
    "version": 1
  }
}