{
  "contractName": "ProductCatalog",
  "abi": [
    {
      "inputs": [
        {
          "internalType": "address",
          "name": "accessControlAddress",
          "type": "address"
        }
      ],
      "stateMutability": "nonpayable",
      "type": "constructor"
    },
    {
      "anonymous": false,
      "inputs": [
        {
          "indexed": true,
          "internalType": "uint256",
          "name": "productId",
          "type": "uint256"
        },
        {
          "indexed": true,
          "internalType": "address",
          "name": "vendor",
          "type": "address"
        },
        {
          "indexed": false,
          "internalType": "string",
          "name": "metadataURI",
          "type": "string"
        },
        {
          "indexed": false,
          "internalType": "uint256",
          "name": "price",
          "type": "uint256"
        },
        {
          "indexed": false,
          "internalType": "uint256",
          "name": "quantity",
          "type": "uint256"
        }
      ],
      "name": "ProductCreated",
      "type": "event"
    },
    {
      "anonymous": false,
      "inputs": [
        {
          "indexed": true,
          "internalType": "uint256",
          "name": "productId",
          "type": "uint256"
        },
        {
          "indexed": false,
          "internalType": "bool",
          "name": "active",
          "type": "bool"
        }
      ],
      "name": "ProductStatusChanged",
      "type": "event"
    },
    {
      "anonymous": false,
      "inputs": [
        {
          "indexed": true,
          "internalType": "uint256",
          "name": "productId",
          "type": "uint256"
        },
        {
          "indexed": false,
          "internalType": "string",
          "name": "metadataURI",
          "type": "string"
        },
        {
          "indexed": false,
          "internalType": "uint256",
          "name": "price",
          "type": "uint256"
        },
        {
          "indexed": false,
          "internalType": "uint256",
          "name": "quantity",
          "type": "uint256"
        }
      ],
      "name": "ProductUpdated",
      "type": "event"
    },
    {
      "inputs": [],
      "name": "accessControl",
      "outputs": [
        {
          "internalType": "contract AccessControl",
          "name": "",
          "type": "address"
        }
      ],
      "stateMutability": "view",
      "type": "function",
      "constant": true
    },
    {
      "inputs": [
        {
          "internalType": "string",
          "name": "metadataURI",
          "type": "string"
        },
        {
          "internalType": "uint256",
          "name": "price",
          "type": "uint256"
        },
        {
          "internalType": "uint256",
          "name": "quantity",
          "type": "uint256"
        }
      ],
      "name": "createProduct",
      "outputs": [
        {
          "internalType": "uint256",
          "name": "productId",
          "type": "uint256"
        }
      ],
      "stateMutability": "nonpayable",
      "type": "function"
    },
    {
      "inputs": [
        {
          "internalType": "uint256",
          "name": "productId",
          "type": "uint256"
        },
        {
          "internalType": "string",
          "name": "metadataURI",
          "type": "string"
        },
        {
          "internalType": "uint256",
          "name": "price",
          "type": "uint256"
        },
        {
          "internalType": "uint256",
          "name": "quantity",
          "type": "uint256"
        }
      ],
      "name": "updateProduct",
      "outputs": [],
      "stateMutability": "nonpayable",
      "type": "function"
    },
    {
      "inputs": [
        {
          "internalType": "uint256",
          "name": "productId",
          "type": "uint256"
        },
        {
          "internalType": "bool",
          "name": "active",
          "type": "bool"
        }
      ],
      "name": "setProductActive",
      "outputs": [],
      "stateMutability": "nonpayable",
      "type": "function"
    },
    {
      "inputs": [
        {
          "internalType": "uint256",
          "name": "productId",
          "type": "uint256"
        },
        {
          "internalType": "uint256",
          "name": "quantity",
          "type": "uint256"
        }
      ],
      "name": "decrementInventory",
      "outputs": [],
      "stateMutability": "nonpayable",
      "type": "function"
    },
    {
      "inputs": [
        {
          "internalType": "uint256",
          "name": "productId",
          "type": "uint256"
        }
      ],
      "name": "getProduct",
      "outputs": [
        {
          "components": [
            {
              "internalType": "uint256",
              "name": "id",
              "type": "uint256"
            },
            {
              "internalType": "address",
              "name": "vendor",
              "type": "address"
            },
            {
              "internalType": "string",
              "name": "metadataURI",
              "type": "string"
            },
            {
              "internalType": "uint256",
              "name": "price",
              "type": "uint256"
            },
            {
              "internalType": "uint256",
              "name": "quantity",
              "type": "uint256"
            },
            {
              "internalType": "bool",
              "name": "active",
              "type": "bool"
            }
          ],
          "internalType": "struct ProductCatalog.Product",
          "name": "",
          "type": "tuple"
        }
      ],
      "stateMutability": "view",
      "type": "function",
      "constant": true
    },
    {
      "inputs": [
        {
          "internalType": "uint256",
          "name": "productId",
          "type": "uint256"
        }
      ],
      "name": "productPrice",
      "outputs": [
        {
          "internalType": "uint256",
          "name": "",
          "type": "uint256"
        }
      ],
      "stateMutability": "view",
      "type": "function",
      "constant": true
    },
    {
      "inputs": [
        {
          "internalType": "uint256",
          "name": "productId",
          "type": "uint256"
        }
      ],
      "name": "productAvailable",
      "outputs": [
        {
          "internalType": "bool",
          "name": "",
          "type": "bool"
        }
      ],
      "stateMutability": "view",
      "type": "function",
      "constant": true
    }
  ],
  "bytecode": "0x60a060405260016000553480156200001657600080fd5b506040516200236e3803806200236e83398181016040528101906200003c919062000155565b80600073ffffffffffffffffffffffffffffffffffffffff168173ffffffffffffffffffffffffffffffffffffffff1603620000af576040517f08c379a0000000000000000000000000000000000000000000000000000000008152600401620000a690620001e8565b60405180910390fd5b8073ffffffffffffffffffffffffffffffffffffffff1660808173ffffffffffffffffffffffffffffffffffffffff168152505050506200020a565b600080fd5b600073ffffffffffffffffffffffffffffffffffffffff82169050919050565b60006200011d82620000f0565b9050919050565b6200012f8162000110565b81146200013b57600080fd5b50565b6000815190506200014f8162000124565b92915050565b6000602082840312156200016e576200016d620000eb565b5b60006200017e848285016200013e565b91505092915050565b600082825260208201905092915050565b7f416363657373436f6e74726f6c6c65643a207a65726f20616464726573730000600082015250565b6000620001d0601e8362000187565b9150620001dd8262000198565b602082019050919050565b600060208201905081810360008301526200020381620001c1565b9050919050565b60805161212c62000242600039600081816101c1015281816101e50152818161063f01528181610a970152610f55015261212c6000f3fe608060405234801561001057600080fd5b50600436106100885760003560e01c8063810620801161005b5780638106208014610127578063b9db15b414610143578063fd68b3ff14610173578063fe3d07e4146101a357610088565b806313007d551461008d5780632d561787146100ab5780635ee611c2146100c75780637bf12b1c146100f7575b600080fd5b6100956101bf565b6040516100a29190611251565b60405180910390f35b6100c560048036038101906100c09190611311565b6101e3565b005b6100e160048036038101906100dc9190611399565b61049d565b6040516100ee91906113e1565b60405180910390f35b610111600480360381019061010c91906113fc565b61063b565b60405161011e919061147f565b60405180910390f35b610141600480360381019061013c91906114c6565b610992565b005b61015d60048036038101906101589190611399565b610bc8565b60405161016a919061165e565b60405180910390f35b61018d60048036038101906101889190611399565b610d8f565b60405161019a919061147f565b60405180910390f35b6101bd60048036038101906101b89190611680565b610f53565b005b7f000000000000000000000000000000000000000000000000000000000000000081565b7f000000000000000000000000000000000000000000000000000000000000000073ffffffffffffffffffffffffffffffffffffffff1663ee54d54f336040518263ffffffff1660e01b815260040161023c91906116cf565b602060405180830381865afa158015610259573d6000803e3d6000fd5b505050506040513d601f19601f8201168201806040525081019061027d91906116ff565b6102bc576040517f08c379a00000000000000000000000000000000000000000000000000000000081526004016102b390611789565b60405180910390fd5b60006001600087815260200190815260200160002090503373ffffffffffffffffffffffffffffffffffffffff168160010160009054906101000a900473ffffffffffffffffffffffffffffffffffffffff1673ffffffffffffffffffffffffffffffffffffffff1614610365576040517f08c379a000000000000000000000000000000000000000000000000000000000815260040161035c906117f5565b60405180910390fd5b600085859050036103ab576040517f08c379a00000000000000000000000000000000000000000000000000000000081526004016103a290611861565b60405180910390fd5b600083116103ee576040517f08c379a00000000000000000000000000000000000000000000000000000000081526004016103e5906118cd565b60405180910390fd5b60008211610431576040517f08c379a000000000000000000000000000000000000000000000000000000000815260040161042890611939565b60405180910390fd5b8484826002019182610444929190611b95565b50828160030181905550818160040181905550857ff2f6cb462e8728158dbba5fcbe8181d88ca70bd5a0a5ad7f718c99ad80ba00a58686868660405161048d9493929190611ca1565b60405180910390a2505050505050565b600080600160008481526020019081526020016000206040518060c0016040529081600082015481526020016001820160009054906101000a900473ffffffffffffffffffffffffffffffffffffffff1673ffffffffffffffffffffffffffffffffffffffff1673ffffffffffffffffffffffffffffffffffffffff16815260200160028201805461052e906119c2565b80601f016020809104026020016040519081016040528092919081815260200182805461055a906119c2565b80156105a75780601f1061057c576101008083540402835291602001916105a7565b820191906000526020600020905b81548152906001019060200180831161058a57829003601f168201915b5050505050815260200160038201548152602001600482015481526020016005820160009054906101000a900460ff1615151515815250509050600073ffffffffffffffffffffffffffffffffffffffff16816020015173ffffffffffffffffffffffffffffffffffffffff161415801561062357508060a001515b8015610633575060008160800151115b915050919050565b60007f000000000000000000000000000000000000000000000000000000000000000073ffffffffffffffffffffffffffffffffffffffff1663ee54d54f336040518263ffffffff1660e01b815260040161069691906116cf565b602060405180830381865afa1580156106b3573d6000803e3d6000fd5b505050506040513d601f19601f820116820180604052508101906106d791906116ff565b610716576040517f08c379a000000000000000000000000000000000000000000000000000000000815260040161070d90611789565b60405180910390fd5b6000858590500361075c576040517f08c379a000000000000000000000000000000000000000000000000000000000815260040161075390611861565b60405180910390fd5b6000831161079f576040517f08c379a0000000000000000000000000000000000000000000000000000000008152600401610796906118cd565b60405180910390fd5b600082116107e2576040517f08c379a00000000000000000000000000000000000000000000000000000000081526004016107d990611939565b60405180910390fd5b6000808154809291906107f490611d10565b9190505590506040518060c001604052808281526020013373ffffffffffffffffffffffffffffffffffffffff16815260200186868080601f016020809104026020016040519081016040528093929190818152602001838380828437600081840152601f19601f82011690508083019250505050505050815260200184815260200183815260200160011515815250600160008381526020019081526020016000206000820151816000015560208201518160010160006101000a81548173ffffffffffffffffffffffffffffffffffffffff021916908373ffffffffffffffffffffffffffffffffffffffff16021790555060408201518160020190816108fd9190611d58565b50606082015181600301556080820151816004015560a08201518160050160006101000a81548160ff0219169083151502179055509050503373ffffffffffffffffffffffffffffffffffffffff16817f83684066a19b1f5686b5bacce959611511b3626a9f70fb2af303c99eb1e51339878787876040516109829493929190611ca1565b60405180910390a3949350505050565b6000600160008481526020019081526020016000209050600073ffffffffffffffffffffffffffffffffffffffff168160010160009054906101000a900473ffffffffffffffffffffffffffffffffffffffff1673ffffffffffffffffffffffffffffffffffffffff1603610a3c576040517f08c379a0000000000000000000000000000000000000000000000000000000008152600401610a3390611e76565b60405180910390fd5b8060010160009054906101000a900473ffffffffffffffffffffffffffffffffffffffff1673ffffffffffffffffffffffffffffffffffffffff163373ffffffffffffffffffffffffffffffffffffffff161480610b3057507f000000000000000000000000000000000000000000000000000000000000000073ffffffffffffffffffffffffffffffffffffffff166324d7806c336040518263ffffffff1660e01b8152600401610aee91906116cf565b602060405180830381865afa158015610b0b573d6000803e3d6000fd5b505050506040513d601f19601f82011682018060405250810190610b2f91906116ff565b5b610b6f576040517f08c379a0000000000000000000000000000000000000000000000000000000008152600401610b6690611ee2565b60405180910390fd5b818160050160006101000a81548160ff021916908315150217905550827f294753ecc63751eea2a69294d96d2d0e5e190f6e4bc85db582e73f8a74e1c60283604051610bbb91906113e1565b60405180910390a2505050565b610bd0611184565b6000600160008481526020019081526020016000206040518060c0016040529081600082015481526020016001820160009054906101000a900473ffffffffffffffffffffffffffffffffffffffff1673ffffffffffffffffffffffffffffffffffffffff1673ffffffffffffffffffffffffffffffffffffffff168152602001600282018054610c60906119c2565b80601f0160208091040260200160405190810160405280929190818152602001828054610c8c906119c2565b8015610cd95780601f10610cae57610100808354040283529160200191610cd9565b820191906000526020600020905b815481529060010190602001808311610cbc57829003601f168201915b5050505050815260200160038201548152602001600482015481526020016005820160009054906101000a900460ff1615151515815250509050600073ffffffffffffffffffffffffffffffffffffffff16816020015173ffffffffffffffffffffffffffffffffffffffff1603610d86576040517f08c379a0000000000000000000000000000000000000000000000000000000008152600401610d7d90611e76565b60405180910390fd5b80915050919050565b600080600160008481526020019081526020016000206040518060c0016040529081600082015481526020016001820160009054906101000a900473ffffffffffffffffffffffffffffffffffffffff1673ffffffffffffffffffffffffffffffffffffffff1673ffffffffffffffffffffffffffffffffffffffff168152602001600282018054610e20906119c2565b80601f0160208091040260200160405190810160405280929190818152602001828054610e4c906119c2565b8015610e995780601f10610e6e57610100808354040283529160200191610e99565b820191906000526020600020905b815481529060010190602001808311610e7c57829003601f168201915b5050505050815260200160038201548152602001600482015481526020016005820160009054906101000a900460ff1615151515815250509050600073ffffffffffffffffffffffffffffffffffffffff16816020015173ffffffffffffffffffffffffffffffffffffffff1603610f46576040517f08c379a0000000000000000000000000000000000000000000000000000000008152600401610f3d90611e76565b60405180910390fd5b8060600151915050919050565b7f000000000000000000000000000000000000000000000000000000000000000073ffffffffffffffffffffffffffffffffffffffff166324d7806c336040518263ffffffff1660e01b8152600401610fac91906116cf565b602060405180830381865afa158015610fc9573d6000803e3d6000fd5b505050506040513d601f19601f82011682018060405250810190610fed91906116ff565b61102c576040517f08c379a000000000000000000000000000000000000000000000000000000000815260040161102390611f4e565b60405180910390fd5b6000600160008481526020019081526020016000209050600073ffffffffffffffffffffffffffffffffffffffff168160010160009054906101000a900473ffffffffffffffffffffffffffffffffffffffff1673ffffffffffffffffffffffffffffffffffffffff16036110d6576040517f08c379a00000000000000000000000000000000000000000000000000000000081526004016110cd90611e76565b60405180910390fd5b818160040154101561111d576040517f08c379a000000000000000000000000000000000000000000000000000000000815260040161111490611fe0565b60405180910390fd5b818160040160008282546111319190612000565b92505081905550827ff2f6cb462e8728158dbba5fcbe8181d88ca70bd5a0a5ad7f718c99ad80ba00a58260020183600301548460040154604051611177939291906120b8565b60405180910390a2505050565b6040518060c0016040528060008152602001600073ffffffffffffffffffffffffffffffffffffffff1681526020016060815260200160008152602001600081526020016000151581525090565b600073ffffffffffffffffffffffffffffffffffffffff82169050919050565b6000819050919050565b600061121761121261120d846111d2565b6111f2565b6111d2565b9050919050565b6000611229826111fc565b9050919050565b600061123b8261121e565b9050919050565b61124b81611230565b82525050565b60006020820190506112666000830184611242565b92915050565b600080fd5b600080fd5b6000819050919050565b61128981611276565b811461129457600080fd5b50565b6000813590506112a681611280565b92915050565b600080fd5b600080fd5b600080fd5b60008083601f8401126112d1576112d06112ac565b5b8235905067ffffffffffffffff8111156112ee576112ed6112b1565b5b60208301915083600182028301111561130a576113096112b6565b5b9250929050565b60008060008060006080868803121561132d5761132c61126c565b5b600061133b88828901611297565b955050602086013567ffffffffffffffff81111561135c5761135b611271565b5b611368888289016112bb565b9450945050604061137b88828901611297565b925050606061138c88828901611297565b9150509295509295909350565b6000602082840312156113af576113ae61126c565b5b60006113bd84828501611297565b91505092915050565b60008115159050919050565b6113db816113c6565b82525050565b60006020820190506113f660008301846113d2565b92915050565b600080600080606085870312156114165761141561126c565b5b600085013567ffffffffffffffff81111561143457611433611271565b5b611440878288016112bb565b9450945050602061145387828801611297565b925050604061146487828801611297565b91505092959194509250565b61147981611276565b82525050565b60006020820190506114946000830184611470565b92915050565b6114a3816113c6565b81146114ae57600080fd5b50565b6000813590506114c08161149a565b92915050565b600080604083850312156114dd576114dc61126c565b5b60006114eb85828601611297565b92505060206114fc858286016114b1565b9150509250929050565b61150f81611276565b82525050565b6000611520826111d2565b9050919050565b61153081611515565b82525050565b600081519050919050565b600082825260208201905092915050565b60005b83811015611570578082015181840152602081019050611555565b60008484015250505050565b6000601f19601f8301169050919050565b600061159882611536565b6115a28185611541565b93506115b2818560208601611552565b6115bb8161157c565b840191505092915050565b6115cf816113c6565b82525050565b600060c0830160008301516115ed6000860182611506565b5060208301516116006020860182611527565b5060408301518482036040860152611618828261158d565b915050606083015161162d6060860182611506565b5060808301516116406080860182611506565b5060a083015161165360a08601826115c6565b508091505092915050565b6000602082019050818103600083015261167881846115d5565b905092915050565b600080604083850312156116975761169661126c565b5b60006116a585828601611297565b92505060206116b685828601611297565b9150509250929050565b6116c981611515565b82525050565b60006020820190506116e460008301846116c0565b92915050565b6000815190506116f98161149a565b92915050565b6000602082840312156117155761171461126c565b5b6000611723848285016116ea565b91505092915050565b600082825260208201905092915050565b7f416363657373436f6e74726f6c6c65643a2076656e646f72206f6e6c79000000600082015250565b6000611773601d8361172c565b915061177e8261173d565b602082019050919050565b600060208201905081810360008301526117a281611766565b9050919050565b7f50726f64756374436174616c6f673a206e6f74206f776e657200000000000000600082015250565b60006117df60198361172c565b91506117ea826117a9565b602082019050919050565b6000602082019050818103600083015261180e816117d2565b9050919050565b7f50726f64756374436174616c6f673a20656d707479206d657461646174610000600082015250565b600061184b601e8361172c565b915061185682611815565b602082019050919050565b6000602082019050818103600083015261187a8161183e565b9050919050565b7f50726f64756374436174616c6f673a207072696365207a65726f000000000000600082015250565b60006118b7601a8361172c565b91506118c282611881565b602082019050919050565b600060208201905081810360008301526118e6816118aa565b9050919050565b7f50726f64756374436174616c6f673a207175616e74697479207a65726f000000600082015250565b6000611923601d8361172c565b915061192e826118ed565b602082019050919050565b6000602082019050818103600083015261195281611916565b9050919050565b600082905092915050565b7f4e487b7100000000000000000000000000000000000000000000000000000000600052604160045260246000fd5b7f4e487b7100000000000000000000000000000000000000000000000000000000600052602260045260246000fd5b600060028204905060018216806119da57607f821691505b6020821081036119ed576119ec611993565b5b50919050565b60008190508160005260206000209050919050565b60006020601f8301049050919050565b600082821b905092915050565b600060088302611a557fffffffffffffffffffffffffffffffffffffffffffffffffffffffffffffffff82611a18565b611a5f8683611a18565b95508019841693508086168417925050509392505050565b6000611a92611a8d611a8884611276565b6111f2565b611276565b9050919050565b6000819050919050565b611aac83611a77565b611ac0611ab882611a99565b848454611a25565b825550505050565b600090565b611ad5611ac8565b611ae0818484611aa3565b505050565b5b81811015611b0457611af9600082611acd565b600181019050611ae6565b5050565b601f821115611b4957611b1a816119f3565b611b2384611a08565b81016020851015611b32578190505b611b46611b3e85611a08565b830182611ae5565b50505b505050565b600082821c905092915050565b6000611b6c60001984600802611b4e565b1980831691505092915050565b6000611b858383611b5b565b9150826002028217905092915050565b611b9f8383611959565b67ffffffffffffffff811115611bb857611bb7611964565b5b611bc282546119c2565b611bcd828285611b08565b6000601f831160018114611bfc5760008415611bea578287013590505b611bf48582611b79565b865550611c5c565b601f198416611c0a866119f3565b60005b82811015611c3257848901358255600182019150602085019450602081019050611c0d565b86831015611c4f5784890135611c4b601f891682611b5b565b8355505b6001600288020188555050505b50505050505050565b82818337600083830152505050565b6000611c80838561172c565b9350611c8d838584611c65565b611c968361157c565b840190509392505050565b60006060820190508181036000830152611cbc818688611c74565b9050611ccb6020830185611470565b611cd86040830184611470565b95945050505050565b7f4e487b7100000000000000000000000000000000000000000000000000000000600052601160045260246000fd5b6000611d1b82611276565b91507fffffffffffffffffffffffffffffffffffffffffffffffffffffffffffffffff8203611d4d57611d4c611ce1565b5b600182019050919050565b611d6182611536565b67ffffffffffffffff811115611d7a57611d79611964565b5b611d8482546119c2565b611d8f828285611b08565b600060209050601f831160018114611dc25760008415611db0578287015190505b611dba8582611b79565b865550611e22565b601f198416611dd0866119f3565b60005b82811015611df857848901518255600182019150602085019450602081019050611dd3565b86831015611e155784890151611e11601f891682611b5b565b8355505b6001600288020188555050505b505050505050565b7f50726f64756374436174616c6f673a206d697373696e672070726f6475637400600082015250565b6000611e60601f8361172c565b9150611e6b82611e2a565b602082019050919050565b60006020820190508181036000830152611e8f81611e53565b9050919050565b7f50726f64756374436174616c6f673a206e6f7420616c6c6f7765640000000000600082015250565b6000611ecc601b8361172c565b9150611ed782611e96565b602082019050919050565b60006020820190508181036000830152611efb81611ebf565b9050919050565b7f416363657373436f6e74726f6c6c65643a2061646d696e206f6e6c7900000000600082015250565b6000611f38601c8361172c565b9150611f4382611f02565b602082019050919050565b60006020820190508181036000830152611f6781611f2b565b9050919050565b7f50726f64756374436174616c6f673a20696e73756666696369656e7420696e7660008201527f656e746f72790000000000000000000000000000000000000000000000000000602082015250565b6000611fca60268361172c565b9150611fd582611f6e565b604082019050919050565b60006020820190508181036000830152611ff981611fbd565b9050919050565b600061200b82611276565b915061201683611276565b925082820390508181111561202e5761202d611ce1565b5b92915050565b60008154612041816119c2565b61204b818661172c565b94506001821660008114612066576001811461207c576120af565b60ff1983168652811515602002860193506120af565b612085856119f3565b60005b838110156120a757815481890152600182019150602081019050612088565b808801955050505b50505092915050565b600060608201905081810360008301526120d28186612034565b90506120e16020830185611470565b6120ee6040830184611470565b94935050505056fea2646970667358221220856e08204977d1ef02f64fbab5bf27725a7fab733e2e2ad5932e19b7289146f864736f6c63430008130033",
  "immutableReferences": {
    "420": [
      {
        "length": 32,
        "start": 449
      },
      {
        "length": 32,
        "start": 485
      },
      {
        "length": 32,
        "start": 1599
      },
      {
        "length": 32,
        "start": 2711
      },
      {
        "length": 32,
        "start": 3925
      }
    ]
  },
  "source": "// SPDX-License-Identifier: MIT\r\npragma solidity ^0.8.19;\r\n\r\nimport \"./AccessControlled.sol\";\r\n\r\n/**\r\n * @title ProductCatalog\r\n * @notice Manages vendor products stored on-chain (lightweight metadata pointer + pricing).\r\n *         Rich content (images, specs) should live off-chain; this contract emits events for indexing.\r\n */\r\ncontract ProductCatalog is AccessControlled {\r\n    struct Product {\r\n        uint256 id;\r\n        address vendor;\r\n        string metadataURI;\r\n        uint256 price; // price per unit in wei\r\n        uint256 quantity;\r\n        bool active;\r\n    }\r\n\r\n    uint256 private _nextProductId = 1;\r\n    mapping(uint256 => Product) private _products;\r\n\r\n    event ProductCreated(\r\n        uint256 indexed productId,\r\n        address indexed vendor,\r\n        string metadataURI,\r\n        uint256 price,\r\n        uint256 quantity\r\n    );\r\n    event ProductUpdated(\r\n        uint256 indexed productId,\r\n        string metadataURI,\r\n        uint256 price,\r\n        uint256 quantity\r\n    );\r\n    event ProductStatusChanged(uint256 indexed productId, bool active);\r\n\r\n    constructor(address accessControlAddress) AccessControlled(accessControlAddress) {}\r\n\r\n    function createProduct(\r\n        string calldata metadataURI,\r\n        uint256 price,\r\n        uint256 quantity\r\n    ) external onlyVendor returns (uint256 productId) {\r\n        require(bytes(metadataURI).length != 0, \"ProductCatalog: empty metadata\");\r\n        require(price > 0, \"ProductCatalog: price zero\");\r\n        require(quantity > 0, \"ProductCatalog: quantity zero\");\r\n\r\n        productId = _nextProductId++;\r\n        _products[productId] = Product({\r\n            id: productId,\r\n            vendor: msg.sender,\r\n            metadataURI: metadataURI,\r\n            price: price,\r\n            quantity: quantity,\r\n            active: true\r\n        });\r\n        emit ProductCreated(productId, msg.sender, metadataURI, price, quantity);\r\n    }\r\n\r\n    function updateProduct(\r\n        uint256 productId,\r\n        string calldata metadataURI,\r\n        uint256 price,\r\n        uint256 quantity\r\n    ) external onlyVendor {\r\n        Product storage product = _products[productId];\r\n        require(product.vendor == msg.sender, \"ProductCatalog: not owner\");\r\n        require(bytes(metadataURI).length != 0, \"ProductCatalog: empty metadata\");\r\n        require(price > 0, \"ProductCatalog: price zero\");\r\n        require(quantity > 0, \"ProductCatalog: quantity zero\");\r\n\r\n        product.metadataURI = metadataURI;\r\n        product.price = price;\r\n        product.quantity = quantity;\r\n        emit ProductUpdated(productId, metadataURI, price, quantity);\r\n    }\r\n\r\n    function setProductActive(uint256 productId, bool active) external {\r\n        Product storage product = _products[productId];\r\n        require(product.vendor != address(0), \"ProductCatalog: missing product\");\r\n        require(\r\n            msg.sender == product.vendor || accessControl.isAdmin(msg.sender),\r\n            \"ProductCatalog: not allowed\"\r\n        );\r\n        product.active = active;\r\n        emit ProductStatusChanged(productId, active);\r\n    }\r\n\r\n    function decrementInventory(uint256 productId, uint256 quantity) external onlyAdmin {\r\n        Product storage product = _products[productId];\r\n        require(product.vendor != address(0), \"ProductCatalog: missing product\");\r\n        require(product.quantity >= quantity, \"ProductCatalog: insufficient inventory\");\r\n        product.quantity -= quantity;\r\n        emit ProductUpdated(productId, product.metadataURI, product.price, product.quantity);\r\n    }\r\n\r\n    function getProduct(uint256 productId) external view returns (Product memory) {\r\n        Product memory product = _products[productId];\r\n        require(product.vendor != address(0), \"ProductCatalog: missing product\");\r\n        return product;\r\n    }\r\n\r\n    function productPrice(uint256 productId) external view returns (uint256) {\r\n        Product memory product = _products[productId];\r\n        require(product.vendor != address(0), \"ProductCatalog: missing product\");\r\n        return product.price;\r\n    }\r\n\r\n    function productAvailable(uint256 productId) external view returns (bool) {\r\n        Product memory product = _products[productId];\r\n        return product.vendor != address(0) && product.active && product.quantity > 0;\r\n    }\r\n}\r\n",
  "sourcePath": "C:\\Users\\AdamBo\\Desktop\\ecom-web3\\smart-contracts\\contracts\\ProductCatalog.sol",
  "compiler": {
    "name": "solc",
    "version": "0.8.19+commit.7dd6d404.Emscripten.clang"
  },
  "schemaVersion": "3.4.16",
  "updatedAt": "2025-12-21T05:33:08.725Z",
  "networkType": "ethereum",
  "devdoc": {
    "kind": "dev",
    "methods": {},
    "title": "ProductCatalog",
    "version": 1
  },
  "userdoc": {
    "kind": "user",
    "methods": {},
    "notice": "Manages vendor products stored on-chain (lightweight metadata pointer + pricing).         Rich content (images, specs) should live off-chain; this contract emits events for indexing.",
    "version": 1
  }
}