{
  "contractName": "AccessControl",
  "abi": [
    {
      "inputs": [],
      "stateMutability": "nonpayable",
      "type": "constructor"
    },
    {
      "anonymous": false,
      "inputs": [
        {
          "indexed": true,
          "internalType": "address",
          "name": "account",
          "type": "address"
        },
        {
          "indexed": false,
          "internalType": "enum AccessControl.Role",
          "name": "role",
          "type": "uint8"
        }
      ],
      "name": "RoleGranted",
      "type": "event"
    },
    {
      "anonymous": false,
      "inputs": [
        {
          "indexed": true,
          "internalType": "address",
          "name": "account",
          "type": "address"
        },
        {
          "indexed": false,
          "internalType": "enum AccessControl.Role",
          "name": "previousRole",
          "type": "uint8"
        }
      ],
      "name": "RoleRevoked",
      "type": "event"
    },
    {
      "anonymous": false,
      "inputs": [
        {
          "indexed": true,
          "internalType": "address",
          "name": "vendor",
          "type": "address"
        },
        {
          "indexed": false,
          "internalType": "bool",
          "name": "active",
          "type": "bool"
        }
      ],
      "name": "VendorStatusChanged",
      "type": "event"
    },
    {
      "inputs": [],
      "name": "vendorModule",
      "outputs": [
        {
          "internalType": "address",
          "name": "",
          "type": "address"
        }
      ],
      "stateMutability": "view",
      "type": "function",
      "constant": true
    },
    {
      "inputs": [],
      "name": "registerClient",
      "outputs": [],
      "stateMutability": "nonpayable",
      "type": "function"
    },
    {
      "inputs": [
        {
          "internalType": "address",
          "name": "account",
          "type": "address"
        }
      ],
      "name": "grantAdmin",
      "outputs": [],
      "stateMutability": "nonpayable",
      "type": "function"
    },
    {
      "inputs": [
        {
          "internalType": "address",
          "name": "module",
          "type": "address"
        }
      ],
      "name": "setVendorModule",
      "outputs": [],
      "stateMutability": "nonpayable",
      "type": "function"
    },
    {
      "inputs": [],
      "name": "vendorModuleAddress",
      "outputs": [
        {
          "internalType": "address",
          "name": "",
          "type": "address"
        }
      ],
      "stateMutability": "view",
      "type": "function",
      "constant": true
    },
    {
      "inputs": [
        {
          "internalType": "address",
          "name": "account",
          "type": "address"
        }
      ],
      "name": "grantVendor",
      "outputs": [],
      "stateMutability": "nonpayable",
      "type": "function"
    },
    {
      "inputs": [
        {
          "internalType": "address",
          "name": "account",
          "type": "address"
        }
      ],
      "name": "grantVendorFromModule",
      "outputs": [],
      "stateMutability": "nonpayable",
      "type": "function"
    },
    {
      "inputs": [
        {
          "internalType": "address",
          "name": "vendor",
          "type": "address"
        },
        {
          "internalType": "bool",
          "name": "active",
          "type": "bool"
        }
      ],
      "name": "setVendorActive",
      "outputs": [],
      "stateMutability": "nonpayable",
      "type": "function"
    },
    {
      "inputs": [
        {
          "internalType": "address",
          "name": "account",
          "type": "address"
        }
      ],
      "name": "revokeRole",
      "outputs": [],
      "stateMutability": "nonpayable",
      "type": "function"
    },
    {
      "inputs": [],
      "name": "renounceRole",
      "outputs": [],
      "stateMutability": "nonpayable",
      "type": "function"
    },
    {
      "inputs": [
        {
          "internalType": "address",
          "name": "account",
          "type": "address"
        }
      ],
      "name": "roleOf",
      "outputs": [
        {
          "internalType": "enum AccessControl.Role",
          "name": "",
          "type": "uint8"
        }
      ],
      "stateMutability": "view",
      "type": "function",
      "constant": true
    },
    {
      "inputs": [
        {
          "internalType": "address",
          "name": "account",
          "type": "address"
        }
      ],
      "name": "isAdmin",
      "outputs": [
        {
          "internalType": "bool",
          "name": "",
          "type": "bool"
        }
      ],
      "stateMutability": "view",
      "type": "function",
      "constant": true
    },
    {
      "inputs": [
        {
          "internalType": "address",
          "name": "account",
          "type": "address"
        }
      ],
      "name": "isVendor",
      "outputs": [
        {
          "internalType": "bool",
          "name": "",
          "type": "bool"
        }
      ],
      "stateMutability": "view",
      "type": "function",
      "constant": true
    },
    {
      "inputs": [
        {
          "internalType": "address",
          "name": "account",
          "type": "address"
        }
      ],
      "name": "isClient",
      "outputs": [
        {
          "internalType": "bool",
          "name": "",
          "type": "bool"
        }
      ],
      "stateMutability": "view",
      "type": "function",
      "constant": true
    },
    {
      "inputs": [
        {
          "internalType": "address",
          "name": "vendor",
          "type": "address"
        }
      ],
      "name": "vendorActive",
      "outputs": [
        {
          "internalType": "bool",
          "name": "",
          "type": "bool"
        }
      ],
      "stateMutability": "view",
      "type": "function",
      "constant": true
    }
  ],
  "bytecode": "0x60806040523480156200001157600080fd5b50620000253360016200002b60201b60201c565b62000211565b806000808473ffffffffffffffffffffffffffffffffffffffff1673ffffffffffffffffffffffffffffffffffffffff16815260200190815260200160002060006101000a81548160ff021916908360038111156200008f576200008e62000174565b5b021790555060026003811115620000ab57620000aa62000174565b5b816003811115620000c157620000c062000174565b5b1462000120576000600160008473ffffffffffffffffffffffffffffffffffffffff1673ffffffffffffffffffffffffffffffffffffffff16815260200190815260200160002060006101000a81548160ff0219169083151502179055505b8173ffffffffffffffffffffffffffffffffffffffff167faa259565575c834bc07e74dca784b4071676133ac78513b431afb6ee7edae12182604051620001689190620001f4565b60405180910390a25050565b7f4e487b7100000000000000000000000000000000000000000000000000000000600052602160045260246000fd5b60048110620001b757620001b662000174565b5b50565b6000819050620001ca82620001a3565b919050565b6000620001dc82620001ba565b9050919050565b620001ee81620001cf565b82525050565b60006020820190506200020b6000830184620001e3565b92915050565b61151080620002216000396000f3fe608060405234801561001057600080fd5b50600436106100f55760003560e01c80636d9fb28711610097578063af152fb711610066578063af152fb71461026e578063dfe23f841461028c578063eb10688b14610296578063ee54d54f146102b2576100f5565b80636d9fb287146101e857806380e52e3f146101f257806384b7964f1461020e578063a5d7827e1461023e576100f5565b80632ad80b5e116100d35780632ad80b5e14610162578063336edfd51461018057806335bb3e161461019c578063489dcbc7146101b8576100f5565b80630bb02383146100fa57806324d7806c14610116578063254b9a6c14610146575b600080fd5b610114600480360381019061010f9190611134565b6102e2565b005b610130600480360381019061012b9190611174565b610485565b60405161013d91906111b0565b60405180910390f35b610160600480360381019061015b9190611174565b610501565b005b61016a61059d565b60405161017791906111da565b60405180910390f35b61019a60048036038101906101959190611174565b6105c7565b005b6101b660048036038101906101b19190611174565b61061b565b005b6101d260048036038101906101cd9190611174565b610671565b6040516101df91906111b0565b60405180910390f35b6101f06106c7565b005b61020c60048036038101906102079190611174565b610786565b005b61022860048036038101906102239190611174565b610a12565b60405161023591906111b0565b60405180910390f35b61025860048036038101906102539190611174565b610a8d565b604051610265919061126c565b60405180910390f35b610276610ae2565b60405161028391906111da565b60405180910390f35b610294610b08565b005b6102b060048036038101906102ab9190611174565b610d4b565b005b6102cc60048036038101906102c79190611174565b610dd7565b6040516102d991906111b0565b60405180910390f35b6102eb33610485565b61032a576040517f08c379a0000000000000000000000000000000000000000000000000000000008152600401610321906112e4565b60405180910390fd5b6002600381111561033e5761033d6111f5565b5b6000808473ffffffffffffffffffffffffffffffffffffffff1673ffffffffffffffffffffffffffffffffffffffff16815260200190815260200160002060009054906101000a900460ff16600381111561039c5761039b6111f5565b5b146103dc576040517f08c379a00000000000000000000000000000000000000000000000000000000081526004016103d390611350565b60405180910390fd5b80600160008473ffffffffffffffffffffffffffffffffffffffff1673ffffffffffffffffffffffffffffffffffffffff16815260200190815260200160002060006101000a81548160ff0219169083151502179055508173ffffffffffffffffffffffffffffffffffffffff167fb69ae854f1647f491c551e39d9a4a2b0608f6d7bc4fa128ad73c80c0148bf9b48260405161047991906111b0565b60405180910390a25050565b60006001600381111561049b5761049a6111f5565b5b6000808473ffffffffffffffffffffffffffffffffffffffff1673ffffffffffffffffffffffffffffffffffffffff16815260200190815260200160002060009054906101000a900460ff1660038111156104f9576104f86111f5565b5b149050919050565b600260009054906101000a900473ffffffffffffffffffffffffffffffffffffffff1673ffffffffffffffffffffffffffffffffffffffff163373ffffffffffffffffffffffffffffffffffffffff1614610591576040517f08c379a0000000000000000000000000000000000000000000000000000000008152600401610588906113bc565b60405180910390fd5b61059a81610ea8565b50565b6000600260009054906101000a900473ffffffffffffffffffffffffffffffffffffffff16905090565b6105d033610485565b61060f576040517f08c379a0000000000000000000000000000000000000000000000000000000008152600401610606906112e4565b60405180910390fd5b61061881610ea8565b50565b61062433610485565b610663576040517f08c379a000000000000000000000000000000000000000000000000000000000815260040161065a906112e4565b60405180910390fd5b61066e816001610f5c565b50565b6000600160008373ffffffffffffffffffffffffffffffffffffffff1673ffffffffffffffffffffffffffffffffffffffff16815260200190815260200160002060009054906101000a900460ff169050919050565b600060038111156106db576106da6111f5565b5b6000803373ffffffffffffffffffffffffffffffffffffffff1673ffffffffffffffffffffffffffffffffffffffff16815260200190815260200160002060009054906101000a900460ff166003811115610739576107386111f5565b5b14610779576040517f08c379a00000000000000000000000000000000000000000000000000000000081526004016107709061144e565b60405180910390fd5b610784336003610f5c565b565b61078f33610485565b6107ce576040517f08c379a00000000000000000000000000000000000000000000000000000000081526004016107c5906112e4565b60405180910390fd5b60008060008373ffffffffffffffffffffffffffffffffffffffff1673ffffffffffffffffffffffffffffffffffffffff16815260200190815260200160002060009054906101000a900460ff16905060006003811115610832576108316111f5565b5b816003811115610845576108446111f5565b5b03610885576040517f08c379a000000000000000000000000000000000000000000000000000000000815260040161087c906114ba565b60405180910390fd5b60008060008473ffffffffffffffffffffffffffffffffffffffff1673ffffffffffffffffffffffffffffffffffffffff16815260200190815260200160002060006101000a81548160ff021916908360038111156108e7576108e66111f5565b5b021790555060026003811115610900576108ff6111f5565b5b816003811115610913576109126111f5565b5b036109c0576000600160008473ffffffffffffffffffffffffffffffffffffffff1673ffffffffffffffffffffffffffffffffffffffff16815260200190815260200160002060006101000a81548160ff0219169083151502179055508173ffffffffffffffffffffffffffffffffffffffff167fb69ae854f1647f491c551e39d9a4a2b0608f6d7bc4fa128ad73c80c0148bf9b460006040516109b791906111b0565b60405180910390a25b8173ffffffffffffffffffffffffffffffffffffffff167f34a1009b84e077aee5bc8197faf7105e54f9ba6879e2a51a716e4156ea9ad76982604051610a06919061126c565b60405180910390a25050565b6000600380811115610a2757610a266111f5565b5b6000808473ffffffffffffffffffffffffffffffffffffffff1673ffffffffffffffffffffffffffffffffffffffff16815260200190815260200160002060009054906101000a900460ff166003811115610a8557610a846111f5565b5b149050919050565b60008060008373ffffffffffffffffffffffffffffffffffffffff1673ffffffffffffffffffffffffffffffffffffffff16815260200190815260200160002060009054906101000a900460ff169050919050565b600260009054906101000a900473ffffffffffffffffffffffffffffffffffffffff1681565b60008060003373ffffffffffffffffffffffffffffffffffffffff1673ffffffffffffffffffffffffffffffffffffffff16815260200190815260200160002060009054906101000a900460ff16905060006003811115610b6c57610b6b6111f5565b5b816003811115610b7f57610b7e6111f5565b5b03610bbf576040517f08c379a0000000000000000000000000000000000000000000000000000000008152600401610bb6906114ba565b60405180910390fd5b60008060003373ffffffffffffffffffffffffffffffffffffffff1673ffffffffffffffffffffffffffffffffffffffff16815260200190815260200160002060006101000a81548160ff02191690836003811115610c2157610c206111f5565b5b021790555060026003811115610c3a57610c396111f5565b5b816003811115610c4d57610c4c6111f5565b5b03610cfa576000600160003373ffffffffffffffffffffffffffffffffffffffff1673ffffffffffffffffffffffffffffffffffffffff16815260200190815260200160002060006101000a81548160ff0219169083151502179055503373ffffffffffffffffffffffffffffffffffffffff167fb69ae854f1647f491c551e39d9a4a2b0608f6d7bc4fa128ad73c80c0148bf9b46000604051610cf191906111b0565b60405180910390a25b3373ffffffffffffffffffffffffffffffffffffffff167f34a1009b84e077aee5bc8197faf7105e54f9ba6879e2a51a716e4156ea9ad76982604051610d40919061126c565b60405180910390a250565b610d5433610485565b610d93576040517f08c379a0000000000000000000000000000000000000000000000000000000008152600401610d8a906112e4565b60405180910390fd5b80600260006101000a81548173ffffffffffffffffffffffffffffffffffffffff021916908373ffffffffffffffffffffffffffffffffffffffff16021790555050565b600060026003811115610ded57610dec6111f5565b5b6000808473ffffffffffffffffffffffffffffffffffffffff1673ffffffffffffffffffffffffffffffffffffffff16815260200190815260200160002060009054906101000a900460ff166003811115610e4b57610e4a6111f5565b5b148015610ea15750600160008373ffffffffffffffffffffffffffffffffffffffff1673ffffffffffffffffffffffffffffffffffffffff16815260200190815260200160002060009054906101000a900460ff165b9050919050565b610eb3816002610f5c565b60018060008373ffffffffffffffffffffffffffffffffffffffff1673ffffffffffffffffffffffffffffffffffffffff16815260200190815260200160002060006101000a81548160ff0219169083151502179055508073ffffffffffffffffffffffffffffffffffffffff167fb69ae854f1647f491c551e39d9a4a2b0608f6d7bc4fa128ad73c80c0148bf9b46001604051610f5191906111b0565b60405180910390a250565b806000808473ffffffffffffffffffffffffffffffffffffffff1673ffffffffffffffffffffffffffffffffffffffff16815260200190815260200160002060006101000a81548160ff02191690836003811115610fbd57610fbc6111f5565b5b021790555060026003811115610fd657610fd56111f5565b5b816003811115610fe957610fe86111f5565b5b14611047576000600160008473ffffffffffffffffffffffffffffffffffffffff1673ffffffffffffffffffffffffffffffffffffffff16815260200190815260200160002060006101000a81548160ff0219169083151502179055505b8173ffffffffffffffffffffffffffffffffffffffff167faa259565575c834bc07e74dca784b4071676133ac78513b431afb6ee7edae1218260405161108d919061126c565b60405180910390a25050565b600080fd5b600073ffffffffffffffffffffffffffffffffffffffff82169050919050565b60006110c98261109e565b9050919050565b6110d9816110be565b81146110e457600080fd5b50565b6000813590506110f6816110d0565b92915050565b60008115159050919050565b611111816110fc565b811461111c57600080fd5b50565b60008135905061112e81611108565b92915050565b6000806040838503121561114b5761114a611099565b5b6000611159858286016110e7565b925050602061116a8582860161111f565b9150509250929050565b60006020828403121561118a57611189611099565b5b6000611198848285016110e7565b91505092915050565b6111aa816110fc565b82525050565b60006020820190506111c560008301846111a1565b92915050565b6111d4816110be565b82525050565b60006020820190506111ef60008301846111cb565b92915050565b7f4e487b7100000000000000000000000000000000000000000000000000000000600052602160045260246000fd5b60048110611235576112346111f5565b5b50565b600081905061124682611224565b919050565b600061125682611238565b9050919050565b6112668161124b565b82525050565b6000602082019050611281600083018461125d565b92915050565b600082825260208201905092915050565b7f416363657373436f6e74726f6c3a2061646d696e206f6e6c7900000000000000600082015250565b60006112ce601983611287565b91506112d982611298565b602082019050919050565b600060208201905081810360008301526112fd816112c1565b9050919050565b7f416363657373436f6e74726f6c3a206e6f742076656e646f7200000000000000600082015250565b600061133a601983611287565b915061134582611304565b602082019050919050565b600060208201905081810360008301526113698161132d565b9050919050565b7f416363657373436f6e74726f6c3a206d6f64756c65206f6e6c79000000000000600082015250565b60006113a6601a83611287565b91506113b182611370565b602082019050919050565b600060208201905081810360008301526113d581611399565b9050919050565b7f416363657373436f6e74726f6c3a20616c72656164792072656769737465726560008201527f6400000000000000000000000000000000000000000000000000000000000000602082015250565b6000611438602183611287565b9150611443826113dc565b604082019050919050565b600060208201905081810360008301526114678161142b565b9050919050565b7f416363657373436f6e74726f6c3a206e6f20726f6c6500000000000000000000600082015250565b60006114a4601683611287565b91506114af8261146e565b602082019050919050565b600060208201905081810360008301526114d381611497565b905091905056fea2646970667358221220f7620174a60fc240470f047712ed4aa6af56790d29eee1557bfde4cc077d0bd364736f6c63430008130033",
  "immutableReferences": {},
  "source": "// SPDX-License-Identifier: MIT\r\npragma solidity ^0.8.19;\r\n\r\n/**\r\n * @title AccessControl\r\n * @notice Minimal role management shared across the platform.\r\n *         Roles are mutually exclusive for simplicity (Admin, Vendor, Client).\r\n */\r\ncontract AccessControl {\r\n    enum Role {\r\n        None,\r\n        Admin,\r\n        Vendor,\r\n        Client\r\n    }\r\n\r\n    mapping(address => Role) private _roles;\r\n    mapping(address => bool) private _vendorActive;\r\n    address public vendorModule;\r\n\r\n    event RoleGranted(address indexed account, Role role);\r\n    event RoleRevoked(address indexed account, Role previousRole);\r\n    event VendorStatusChanged(address indexed vendor, bool active);\r\n\r\n    modifier onlyAdmin() {\r\n        require(isAdmin(msg.sender), \"AccessControl: admin only\");\r\n        _;\r\n    }\r\n\r\n    constructor() {\r\n        _grantRole(msg.sender, Role.Admin);\r\n    }\r\n\r\n    function registerClient() external {\r\n        require(_roles[msg.sender] == Role.None, \"AccessControl: already registered\");\r\n        _grantRole(msg.sender, Role.Client);\r\n    }\r\n\r\n    function grantAdmin(address account) external onlyAdmin {\r\n        _grantRole(account, Role.Admin);\r\n    }\r\n\r\n    function setVendorModule(address module) external onlyAdmin {\r\n        vendorModule = module;\r\n    }\r\n    \r\n    function vendorModuleAddress() external view returns (address) {\r\n        return vendorModule;\r\n    }\r\n\r\n    function grantVendor(address account) external onlyAdmin {\r\n        _grantVendor(account);\r\n    }\r\n\r\n    function grantVendorFromModule(address account) external {\r\n        require(msg.sender == vendorModule, \"AccessControl: module only\");\r\n        _grantVendor(account);\r\n    }\r\n\r\n    function _grantVendor(address account) internal {\r\n        _grantRole(account, Role.Vendor);\r\n        _vendorActive[account] = true;\r\n        emit VendorStatusChanged(account, true);\r\n    }\r\n\r\n    function setVendorActive(address vendor, bool active) external onlyAdmin {\r\n        require(_roles[vendor] == Role.Vendor, \"AccessControl: not vendor\");\r\n        _vendorActive[vendor] = active;\r\n        emit VendorStatusChanged(vendor, active);\r\n    }\r\n\r\n    function revokeRole(address account) external onlyAdmin {\r\n        Role previousRole = _roles[account];\r\n        require(previousRole != Role.None, \"AccessControl: no role\");\r\n        _roles[account] = Role.None;\r\n        if (previousRole == Role.Vendor) {\r\n            _vendorActive[account] = false;\r\n            emit VendorStatusChanged(account, false);\r\n        }\r\n        emit RoleRevoked(account, previousRole);\r\n    }\r\n\r\n    function renounceRole() external {\r\n        Role previousRole = _roles[msg.sender];\r\n        require(previousRole != Role.None, \"AccessControl: no role\");\r\n        _roles[msg.sender] = Role.None;\r\n        if (previousRole == Role.Vendor) {\r\n            _vendorActive[msg.sender] = false;\r\n            emit VendorStatusChanged(msg.sender, false);\r\n        }\r\n        emit RoleRevoked(msg.sender, previousRole);\r\n    }\r\n\r\n    function roleOf(address account) external view returns (Role) {\r\n        return _roles[account];\r\n    }\r\n\r\n    function isAdmin(address account) public view returns (bool) {\r\n        return _roles[account] == Role.Admin;\r\n    }\r\n\r\n    function isVendor(address account) public view returns (bool) {\r\n        return _roles[account] == Role.Vendor && _vendorActive[account];\r\n    }\r\n\r\n    function isClient(address account) public view returns (bool) {\r\n        return _roles[account] == Role.Client;\r\n    }\r\n\r\n    function vendorActive(address vendor) external view returns (bool) {\r\n        return _vendorActive[vendor];\r\n    }\r\n\r\n    function _grantRole(address account, Role role) internal {\r\n        _roles[account] = role;\r\n        if (role != Role.Vendor) {\r\n            _vendorActive[account] = false;\r\n        }\r\n        emit RoleGranted(account, role);\r\n    }\r\n}\r\n",
  "sourcePath": "C:\\Users\\AdamBo\\Desktop\\ecom-web3\\smart-contracts\\contracts\\AccessControl.sol",
  "compiler": {
    "name": "solc",
    "version": "0.8.19+commit.7dd6d404.Emscripten.clang"
  },
  "schemaVersion": "3.4.16",
  "updatedAt": "2025-12-17T19:25:19.316Z",
  "networkType": "ethereum",
  "devdoc": {
    "kind": "dev",
    "methods": {},
    "title": "AccessControl",
    "version": 1
  },
  "userdoc": {
    "kind": "user",
    "methods": {},
    "notice": "Minimal role management shared across the platform.         Roles are mutually exclusive for simplicity (Admin, Vendor, Client).",
    "version": 1
  }
}