{
  "contractName": "OrderManagement",
  "abi": [
    {
      "inputs": [
        {
          "internalType": "address",
          "name": "accessControlAddress",
          "type": "address"
        },
        {
          "internalType": "address",
          "name": "catalogAddress",
          "type": "address"
        }
      ],
      "stateMutability": "nonpayable",
      "type": "constructor"
    },
    {
      "anonymous": false,
      "inputs": [
        {
          "indexed": true,
          "internalType": "uint256",
          "name": "orderId",
          "type": "uint256"
        },
        {
          "indexed": true,
          "internalType": "address",
          "name": "buyer",
          "type": "address"
        },
        {
          "indexed": true,
          "internalType": "address",
          "name": "vendor",
          "type": "address"
        },
        {
          "indexed": false,
          "internalType": "uint256",
          "name": "productId",
          "type": "uint256"
        },
        {
          "indexed": false,
          "internalType": "uint256",
          "name": "quantity",
          "type": "uint256"
        },
        {
          "indexed": false,
          "internalType": "uint256",
          "name": "totalPrice",
          "type": "uint256"
        },
        {
          "indexed": false,
          "internalType": "string",
          "name": "metadataURI",
          "type": "string"
        }
      ],
      "name": "OrderCreated",
      "type": "event"
    },
    {
      "anonymous": false,
      "inputs": [
        {
          "indexed": true,
          "internalType": "uint256",
          "name": "orderId",
          "type": "uint256"
        },
        {
          "indexed": false,
          "internalType": "enum OrderManagement.OrderStatus",
          "name": "status",
          "type": "uint8"
        }
      ],
      "name": "OrderStatusUpdated",
      "type": "event"
    },
    {
      "inputs": [],
      "name": "accessControl",
      "outputs": [
        {
          "internalType": "contract AccessControl",
          "name": "",
          "type": "address"
        }
      ],
      "stateMutability": "view",
      "type": "function",
      "constant": true
    },
    {
      "inputs": [],
      "name": "catalog",
      "outputs": [
        {
          "internalType": "contract ProductCatalog",
          "name": "",
          "type": "address"
        }
      ],
      "stateMutability": "view",
      "type": "function",
      "constant": true
    },
    {
      "inputs": [
        {
          "internalType": "uint256",
          "name": "productId",
          "type": "uint256"
        },
        {
          "internalType": "uint256",
          "name": "quantity",
          "type": "uint256"
        },
        {
          "internalType": "string",
          "name": "metadataURI",
          "type": "string"
        }
      ],
      "name": "createOrder",
      "outputs": [
        {
          "internalType": "uint256",
          "name": "orderId",
          "type": "uint256"
        }
      ],
      "stateMutability": "payable",
      "type": "function",
      "payable": true
    },
    {
      "inputs": [
        {
          "internalType": "uint256",
          "name": "orderId",
          "type": "uint256"
        },
        {
          "internalType": "enum OrderManagement.OrderStatus",
          "name": "status",
          "type": "uint8"
        }
      ],
      "name": "updateStatus",
      "outputs": [],
      "stateMutability": "nonpayable",
      "type": "function"
    },
    {
      "inputs": [
        {
          "internalType": "uint256",
          "name": "orderId",
          "type": "uint256"
        }
      ],
      "name": "cancelOrder",
      "outputs": [],
      "stateMutability": "nonpayable",
      "type": "function"
    },
    {
      "inputs": [
        {
          "internalType": "uint256",
          "name": "orderId",
          "type": "uint256"
        }
      ],
      "name": "getOrder",
      "outputs": [
        {
          "components": [
            {
              "internalType": "uint256",
              "name": "id",
              "type": "uint256"
            },
            {
              "internalType": "address",
              "name": "buyer",
              "type": "address"
            },
            {
              "internalType": "address",
              "name": "vendor",
              "type": "address"
            },
            {
              "internalType": "uint256",
              "name": "productId",
              "type": "uint256"
            },
            {
              "internalType": "uint256",
              "name": "quantity",
              "type": "uint256"
            },
            {
              "internalType": "uint256",
              "name": "totalPrice",
              "type": "uint256"
            },
            {
              "internalType": "enum OrderManagement.OrderStatus",
              "name": "status",
              "type": "uint8"
            },
            {
              "internalType": "string",
              "name": "metadataURI",
              "type": "string"
            }
          ],
          "internalType": "struct OrderManagement.Order",
          "name": "",
          "type": "tuple"
        }
      ],
      "stateMutability": "view",
      "type": "function",
      "constant": true
    }
  ],
  "bytecode": "0x60a0604052600180553480156200001557600080fd5b50604051620024e5380380620024e583398181016040528101906200003b919062000207565b81600073ffffffffffffffffffffffffffffffffffffffff168173ffffffffffffffffffffffffffffffffffffffff1603620000ae576040517f08c379a0000000000000000000000000000000000000000000000000000000008152600401620000a590620002af565b60405180910390fd5b8073ffffffffffffffffffffffffffffffffffffffff1660808173ffffffffffffffffffffffffffffffffffffffff168152505050600073ffffffffffffffffffffffffffffffffffffffff168173ffffffffffffffffffffffffffffffffffffffff160362000155576040517f08c379a00000000000000000000000000000000000000000000000000000000081526004016200014c9062000321565b60405180910390fd5b806000806101000a81548173ffffffffffffffffffffffffffffffffffffffff021916908373ffffffffffffffffffffffffffffffffffffffff160217905550505062000343565b600080fd5b600073ffffffffffffffffffffffffffffffffffffffff82169050919050565b6000620001cf82620001a2565b9050919050565b620001e181620001c2565b8114620001ed57600080fd5b50565b6000815190506200020181620001d6565b92915050565b600080604083850312156200022157620002206200019d565b5b60006200023185828601620001f0565b92505060206200024485828601620001f0565b9150509250929050565b600082825260208201905092915050565b7f416363657373436f6e74726f6c6c65643a207a65726f20616464726573730000600082015250565b600062000297601e836200024e565b9150620002a4826200025f565b602082019050919050565b60006020820190508181036000830152620002ca8162000288565b9050919050565b7f4f726465724d616e6167656d656e743a207a65726f20636174616c6f67000000600082015250565b600062000309601d836200024e565b91506200031682620002d1565b602082019050919050565b600060208201905081810360008301526200033c81620002fa565b9050919050565b60805161216a6200037b60003960008181610195015281816102bc0152818161061f015281816106bf0152610760015261216a6000f3fe6080604052600436106100555760003560e01c8063074c09eb1461005a57806313007d55146100855780633a1b3d31146100b0578063514fcac7146100d95780636061f75414610102578063d09ef24114610132575b600080fd5b34801561006657600080fd5b5061006f61016f565b60405161007c91906110d0565b60405180910390f35b34801561009157600080fd5b5061009a610193565b6040516100a7919061110c565b60405180910390f35b3480156100bc57600080fd5b506100d760048036038101906100d29190611196565b6101b7565b005b3480156100e557600080fd5b5061010060048036038101906100fb91906111d6565b6103fd565b005b61011c60048036038101906101179190611268565b61061b565b60405161012991906112eb565b60405180910390f35b34801561013e57600080fd5b50610159600480360381019061015491906111d6565b610d86565b60405161016691906114ed565b60405180910390f35b60008054906101000a900473ffffffffffffffffffffffffffffffffffffffff1681565b7f000000000000000000000000000000000000000000000000000000000000000081565b6000600260008481526020019081526020016000209050600073ffffffffffffffffffffffffffffffffffffffff168160020160009054906101000a900473ffffffffffffffffffffffffffffffffffffffff1673ffffffffffffffffffffffffffffffffffffffff1603610261576040517f08c379a00000000000000000000000000000000000000000000000000000000081526004016102589061156c565b60405180910390fd5b8060020160009054906101000a900473ffffffffffffffffffffffffffffffffffffffff1673ffffffffffffffffffffffffffffffffffffffff163373ffffffffffffffffffffffffffffffffffffffff16148061035557507f000000000000000000000000000000000000000000000000000000000000000073ffffffffffffffffffffffffffffffffffffffff166324d7806c336040518263ffffffff1660e01b8152600401610313919061159b565b602060405180830381865afa158015610330573d6000803e3d6000fd5b505050506040513d601f19601f8201168201806040525081019061035491906115ee565b5b610394576040517f08c379a000000000000000000000000000000000000000000000000000000000815260040161038b90611667565b60405180910390fd5b818160060160006101000a81548160ff021916908360038111156103bb576103ba611336565b5b0217905550827fd9a86b644eb5f5b43cc8a700849852481080361c7a4b00ba646d1b46c5585f95836040516103f09190611696565b60405180910390a2505050565b6000600260008381526020019081526020016000209050600073ffffffffffffffffffffffffffffffffffffffff168160020160009054906101000a900473ffffffffffffffffffffffffffffffffffffffff1673ffffffffffffffffffffffffffffffffffffffff16036104a7576040517f08c379a000000000000000000000000000000000000000000000000000000000815260040161049e9061156c565b60405180910390fd5b3373ffffffffffffffffffffffffffffffffffffffff168160010160009054906101000a900473ffffffffffffffffffffffffffffffffffffffff1673ffffffffffffffffffffffffffffffffffffffff1614610539576040517f08c379a0000000000000000000000000000000000000000000000000000000008152600401610530906116fd565b60405180910390fd5b6000600381111561054d5761054c611336565b5b8160060160009054906101000a900460ff16600381111561057157610570611336565b5b146105b1576040517f08c379a00000000000000000000000000000000000000000000000000000000081526004016105a89061178f565b60405180910390fd5b60038160060160006101000a81548160ff021916908360038111156105d9576105d8611336565b5b0217905550817fd9a86b644eb5f5b43cc8a700849852481080361c7a4b00ba646d1b46c5585f95600360405161060f9190611696565b60405180910390a25050565b60007f000000000000000000000000000000000000000000000000000000000000000073ffffffffffffffffffffffffffffffffffffffff166324d7806c336040518263ffffffff1660e01b8152600401610676919061159b565b602060405180830381865afa158015610693573d6000803e3d6000fd5b505050506040513d601f19601f820116820180604052508101906106b791906115ee565b8061075857507f000000000000000000000000000000000000000000000000000000000000000073ffffffffffffffffffffffffffffffffffffffff1663ee54d54f336040518263ffffffff1660e01b8152600401610716919061159b565b602060405180830381865afa158015610733573d6000803e3d6000fd5b505050506040513d601f19601f8201168201806040525081019061075791906115ee565b5b806107f957507f000000000000000000000000000000000000000000000000000000000000000073ffffffffffffffffffffffffffffffffffffffff166384b7964f336040518263ffffffff1660e01b81526004016107b7919061159b565b602060405180830381865afa1580156107d4573d6000803e3d6000fd5b505050506040513d601f19601f820116820180604052508101906107f891906115ee565b5b610838576040517f08c379a000000000000000000000000000000000000000000000000000000000815260040161082f906117fb565b60405180910390fd5b6000841161087b576040517f08c379a000000000000000000000000000000000000000000000000000000000815260040161087290611867565b60405180910390fd5b600083839050036108c1576040517f08c379a00000000000000000000000000000000000000000000000000000000081526004016108b8906118d3565b60405180910390fd5b60008060009054906101000a900473ffffffffffffffffffffffffffffffffffffffff1673ffffffffffffffffffffffffffffffffffffffff1663b9db15b4876040518263ffffffff1660e01b815260040161091d91906112eb565b600060405180830381865afa15801561093a573d6000803e3d6000fd5b505050506040513d6000823e3d601f19601f820116820180604052508101906109639190611b1b565b90508060a001516109a9576040517f08c379a00000000000000000000000000000000000000000000000000000000081526004016109a090611bd6565b60405180910390fd5b84816080015110156109f0576040517f08c379a00000000000000000000000000000000000000000000000000000000081526004016109e790611c68565b60405180910390fd5b6000858260600151610a029190611cb7565b9050803414610a46576040517f08c379a0000000000000000000000000000000000000000000000000000000008152600401610a3d90611d45565b60405180910390fd5b60016000815480929190610a5990611d65565b9190505592506040518061010001604052808481526020013373ffffffffffffffffffffffffffffffffffffffff168152602001836020015173ffffffffffffffffffffffffffffffffffffffff16815260200188815260200187815260200182815260200160006003811115610ad357610ad2611336565b5b815260200186868080601f016020809104026020016040519081016040528093929190818152602001838380828437600081840152601f19601f82011690508083019250505050505050815250600260008581526020019081526020016000206000820151816000015560208201518160010160006101000a81548173ffffffffffffffffffffffffffffffffffffffff021916908373ffffffffffffffffffffffffffffffffffffffff16021790555060408201518160020160006101000a81548173ffffffffffffffffffffffffffffffffffffffff021916908373ffffffffffffffffffffffffffffffffffffffff160217905550606082015181600301556080820151816004015560a0820151816005015560c08201518160060160006101000a81548160ff02191690836003811115610c1457610c13611336565b5b021790555060e0820151816007019081610c2e9190611faf565b5090505060008054906101000a900473ffffffffffffffffffffffffffffffffffffffff1673ffffffffffffffffffffffffffffffffffffffff1663fe3d07e488886040518363ffffffff1660e01b8152600401610c8d929190612081565b600060405180830381600087803b158015610ca757600080fd5b505af1158015610cbb573d6000803e3d6000fd5b50505050816020015173ffffffffffffffffffffffffffffffffffffffff166108fc349081150290604051600060405180830381858888f19350505050158015610d09573d6000803e3d6000fd5b50816020015173ffffffffffffffffffffffffffffffffffffffff163373ffffffffffffffffffffffffffffffffffffffff16847f38a13cb7fea33534db4e304bd6133d2ebfeb722db3d6e15392ad8b3c2bded3ae8a8a868b8b604051610d749594939291906120e6565b60405180910390a45050949350505050565b610d8e610fce565b60006002600084815260200190815260200160002060405180610100016040529081600082015481526020016001820160009054906101000a900473ffffffffffffffffffffffffffffffffffffffff1673ffffffffffffffffffffffffffffffffffffffff1673ffffffffffffffffffffffffffffffffffffffff1681526020016002820160009054906101000a900473ffffffffffffffffffffffffffffffffffffffff1673ffffffffffffffffffffffffffffffffffffffff1673ffffffffffffffffffffffffffffffffffffffff1681526020016003820154815260200160048201548152602001600582015481526020016006820160009054906101000a900460ff166003811115610ea857610ea7611336565b5b6003811115610eba57610eb9611336565b5b8152602001600782018054610ece90611ddc565b80601f0160208091040260200160405190810160405280929190818152602001828054610efa90611ddc565b8015610f475780601f10610f1c57610100808354040283529160200191610f47565b820191906000526020600020905b815481529060010190602001808311610f2a57829003601f168201915b5050505050815250509050600073ffffffffffffffffffffffffffffffffffffffff16816040015173ffffffffffffffffffffffffffffffffffffffff1603610fc5576040517f08c379a0000000000000000000000000000000000000000000000000000000008152600401610fbc9061156c565b60405180910390fd5b80915050919050565b60405180610100016040528060008152602001600073ffffffffffffffffffffffffffffffffffffffff168152602001600073ffffffffffffffffffffffffffffffffffffffff1681526020016000815260200160008152602001600081526020016000600381111561104457611043611336565b5b8152602001606081525090565b600073ffffffffffffffffffffffffffffffffffffffff82169050919050565b6000819050919050565b600061109661109161108c84611051565b611071565b611051565b9050919050565b60006110a88261107b565b9050919050565b60006110ba8261109d565b9050919050565b6110ca816110af565b82525050565b60006020820190506110e560008301846110c1565b92915050565b60006110f68261109d565b9050919050565b611106816110eb565b82525050565b600060208201905061112160008301846110fd565b92915050565b6000604051905090565b600080fd5b600080fd5b6000819050919050565b61114e8161113b565b811461115957600080fd5b50565b60008135905061116b81611145565b92915050565b6004811061117e57600080fd5b50565b60008135905061119081611171565b92915050565b600080604083850312156111ad576111ac611131565b5b60006111bb8582860161115c565b92505060206111cc85828601611181565b9150509250929050565b6000602082840312156111ec576111eb611131565b5b60006111fa8482850161115c565b91505092915050565b600080fd5b600080fd5b600080fd5b60008083601f84011261122857611227611203565b5b8235905067ffffffffffffffff81111561124557611244611208565b5b6020830191508360018202830111156112615761126061120d565b5b9250929050565b6000806000806060858703121561128257611281611131565b5b60006112908782880161115c565b94505060206112a18782880161115c565b935050604085013567ffffffffffffffff8111156112c2576112c1611136565b5b6112ce87828801611212565b925092505092959194509250565b6112e58161113b565b82525050565b600060208201905061130060008301846112dc565b92915050565b61130f8161113b565b82525050565b600061132082611051565b9050919050565b61133081611315565b82525050565b7f4e487b7100000000000000000000000000000000000000000000000000000000600052602160045260246000fd5b6004811061137657611375611336565b5b50565b600081905061138782611365565b919050565b600061139782611379565b9050919050565b6113a78161138c565b82525050565b600081519050919050565b600082825260208201905092915050565b60005b838110156113e75780820151818401526020810190506113cc565b60008484015250505050565b6000601f19601f8301169050919050565b600061140f826113ad565b61141981856113b8565b93506114298185602086016113c9565b611432816113f3565b840191505092915050565b6000610100830160008301516114566000860182611306565b5060208301516114696020860182611327565b50604083015161147c6040860182611327565b50606083015161148f6060860182611306565b5060808301516114a26080860182611306565b5060a08301516114b560a0860182611306565b5060c08301516114c860c086018261139e565b5060e083015184820360e08601526114e08282611404565b9150508091505092915050565b60006020820190508181036000830152611507818461143d565b905092915050565b600082825260208201905092915050565b7f4f726465724d616e6167656d656e743a206d697373696e67206f726465720000600082015250565b6000611556601e8361150f565b915061156182611520565b602082019050919050565b6000602082019050818103600083015261158581611549565b9050919050565b61159581611315565b82525050565b60006020820190506115b0600083018461158c565b92915050565b60008115159050919050565b6115cb816115b6565b81146115d657600080fd5b50565b6000815190506115e8816115c2565b92915050565b60006020828403121561160457611603611131565b5b6000611612848285016115d9565b91505092915050565b7f4f726465724d616e6167656d656e743a206e6f7420616c6c6f77656400000000600082015250565b6000611651601c8361150f565b915061165c8261161b565b602082019050919050565b6000602082019050818103600083015261168081611644565b9050919050565b6116908161138c565b82525050565b60006020820190506116ab6000830184611687565b92915050565b7f4f726465724d616e6167656d656e743a206e6f74206275796572000000000000600082015250565b60006116e7601a8361150f565b91506116f2826116b1565b602082019050919050565b60006020820190508181036000830152611716816116da565b9050919050565b7f4f726465724d616e6167656d656e743a20616c72656164792070726f6365737360008201527f6564000000000000000000000000000000000000000000000000000000000000602082015250565b600061177960228361150f565b91506117848261171d565b604082019050919050565b600060208201905081810360008301526117a88161176c565b9050919050565b7f416363657373436f6e74726f6c6c65643a20756e726567697374657265640000600082015250565b60006117e5601e8361150f565b91506117f0826117af565b602082019050919050565b60006020820190508181036000830152611814816117d8565b9050919050565b7f4f726465724d616e6167656d656e743a207175616e74697479207a65726f0000600082015250565b6000611851601e8361150f565b915061185c8261181b565b602082019050919050565b6000602082019050818103600083015261188081611844565b9050919050565b7f4f726465724d616e6167656d656e743a20656d707479206d6574616461746100600082015250565b60006118bd601f8361150f565b91506118c882611887565b602082019050919050565b600060208201905081810360008301526118ec816118b0565b9050919050565b600080fd5b7f4e487b7100000000000000000000000000000000000000000000000000000000600052604160045260246000fd5b611930826113f3565b810181811067ffffffffffffffff8211171561194f5761194e6118f8565b5b80604052505050565b6000611962611127565b905061196e8282611927565b919050565b600080fd5b60008151905061198781611145565b92915050565b61199681611315565b81146119a157600080fd5b50565b6000815190506119b38161198d565b92915050565b600080fd5b600067ffffffffffffffff8211156119d9576119d86118f8565b5b6119e2826113f3565b9050602081019050919050565b6000611a026119fd846119be565b611958565b905082815260208101848484011115611a1e57611a1d6119b9565b5b611a298482856113c9565b509392505050565b600082601f830112611a4657611a45611203565b5b8151611a568482602086016119ef565b91505092915050565b600060c08284031215611a7557611a746118f3565b5b611a7f60c0611958565b90506000611a8f84828501611978565b6000830152506020611aa3848285016119a4565b602083015250604082015167ffffffffffffffff811115611ac757611ac6611973565b5b611ad384828501611a31565b6040830152506060611ae784828501611978565b6060830152506080611afb84828501611978565b60808301525060a0611b0f848285016115d9565b60a08301525092915050565b600060208284031215611b3157611b30611131565b5b600082015167ffffffffffffffff811115611b4f57611b4e611136565b5b611b5b84828501611a5f565b91505092915050565b7f4f726465724d616e6167656d656e743a2070726f6475637420696e616374697660008201527f6500000000000000000000000000000000000000000000000000000000000000602082015250565b6000611bc060218361150f565b9150611bcb82611b64565b604082019050919050565b60006020820190508181036000830152611bef81611bb3565b9050919050565b7f4f726465724d616e6167656d656e743a20696e73756666696369656e7420737460008201527f6f636b0000000000000000000000000000000000000000000000000000000000602082015250565b6000611c5260238361150f565b9150611c5d82611bf6565b604082019050919050565b60006020820190508181036000830152611c8181611c45565b9050919050565b7f4e487b7100000000000000000000000000000000000000000000000000000000600052601160045260246000fd5b6000611cc28261113b565b9150611ccd8361113b565b9250828202611cdb8161113b565b91508282048414831517611cf257611cf1611c88565b5b5092915050565b7f4f726465724d616e6167656d656e743a20696e636f72726563742076616c7565600082015250565b6000611d2f60208361150f565b9150611d3a82611cf9565b602082019050919050565b60006020820190508181036000830152611d5e81611d22565b9050919050565b6000611d708261113b565b91507fffffffffffffffffffffffffffffffffffffffffffffffffffffffffffffffff8203611da257611da1611c88565b5b600182019050919050565b7f4e487b7100000000000000000000000000000000000000000000000000000000600052602260045260246000fd5b60006002820490506001821680611df457607f821691505b602082108103611e0757611e06611dad565b5b50919050565b60008190508160005260206000209050919050565b60006020601f8301049050919050565b600082821b905092915050565b600060088302611e6f7fffffffffffffffffffffffffffffffffffffffffffffffffffffffffffffffff82611e32565b611e798683611e32565b95508019841693508086168417925050509392505050565b6000611eac611ea7611ea28461113b565b611071565b61113b565b9050919050565b6000819050919050565b611ec683611e91565b611eda611ed282611eb3565b848454611e3f565b825550505050565b600090565b611eef611ee2565b611efa818484611ebd565b505050565b5b81811015611f1e57611f13600082611ee7565b600181019050611f00565b5050565b601f821115611f6357611f3481611e0d565b611f3d84611e22565b81016020851015611f4c578190505b611f60611f5885611e22565b830182611eff565b50505b505050565b600082821c905092915050565b6000611f8660001984600802611f68565b1980831691505092915050565b6000611f9f8383611f75565b9150826002028217905092915050565b611fb8826113ad565b67ffffffffffffffff811115611fd157611fd06118f8565b5b611fdb8254611ddc565b611fe6828285611f22565b600060209050601f8311600181146120195760008415612007578287015190505b6120118582611f93565b865550612079565b601f19841661202786611e0d565b60005b8281101561204f5784890151825560018201915060208501945060208101905061202a565b8683101561206c5784890151612068601f891682611f75565b8355505b6001600288020188555050505b505050505050565b600060408201905061209660008301856112dc565b6120a360208301846112dc565b9392505050565b82818337600083830152505050565b60006120c5838561150f565b93506120d28385846120aa565b6120db836113f3565b840190509392505050565b60006080820190506120fb60008301886112dc565b61210860208301876112dc565b61211560408301866112dc565b81810360608301526121288184866120b9565b9050969550505050505056fea264697066735822122024f72c481a18b2323fe6b3f0d1c0b469da3ffd70abcf4c433cf2094f288b4ac364736f6c63430008130033",
  "immutableReferences": {
    "420": [
      {
        "length": 32,
        "start": 405
      },
      {
        "length": 32,
        "start": 700
      },
      {
        "length": 32,
        "start": 1567
      },
      {
        "length": 32,
        "start": 1727
      },
      {
        "length": 32,
        "start": 1888
      }
    ]
  },
  "source": "// SPDX-License-Identifier: MIT\r\npragma solidity ^0.8.19;\r\n\r\nimport \"./AccessControlled.sol\";\r\nimport \"./ProductCatalog.sol\";\r\n\r\n/**\r\n * @title OrderManagement\r\n * @notice Handles order creation between clients and vendors while keeping\r\n *         lightweight metadata and emitting events that a backend indexer can enrich.\r\n */\r\ncontract OrderManagement is AccessControlled {\r\n    struct Order {\r\n        uint256 id;\r\n        address buyer;\r\n        address vendor;\r\n        uint256 productId;\r\n        uint256 quantity;\r\n        uint256 totalPrice;\r\n        OrderStatus status;\r\n        string metadataURI;\r\n    }\r\n\r\n    enum OrderStatus {\r\n        Pending,\r\n        Approved,\r\n        Shipped,\r\n        Cancelled\r\n    }\r\n\r\n    ProductCatalog public catalog;\r\n    uint256 private _nextOrderId = 1;\r\n    mapping(uint256 => Order) private _orders;\r\n\r\n    event OrderCreated(\r\n        uint256 indexed orderId,\r\n        address indexed buyer,\r\n        address indexed vendor,\r\n        uint256 productId,\r\n        uint256 quantity,\r\n        uint256 totalPrice,\r\n        string metadataURI\r\n    );\r\n    event OrderStatusUpdated(uint256 indexed orderId, OrderStatus status);\r\n\r\n    constructor(address accessControlAddress, address catalogAddress)\r\n        AccessControlled(accessControlAddress)\r\n    {\r\n        require(catalogAddress != address(0), \"OrderManagement: zero catalog\");\r\n        catalog = ProductCatalog(catalogAddress);\r\n    }\r\n\r\n    function createOrder(\r\n        uint256 productId,\r\n        uint256 quantity,\r\n        string calldata metadataURI\r\n    ) external payable onlyKnownRole returns (uint256 orderId) {\r\n        require(quantity > 0, \"OrderManagement: quantity zero\");\r\n        require(bytes(metadataURI).length != 0, \"OrderManagement: empty metadata\");\r\n\r\n        ProductCatalog.Product memory product = catalog.getProduct(productId);\r\n        require(product.active, \"OrderManagement: product inactive\");\r\n        require(product.quantity >= quantity, \"OrderManagement: insufficient stock\");\r\n        uint256 totalPrice = product.price * quantity;\r\n\r\n        require(msg.value == totalPrice, \"OrderManagement: incorrect value\");\r\n\r\n        orderId = _nextOrderId++;\r\n        _orders[orderId] = Order({\r\n            id: orderId,\r\n            buyer: msg.sender,\r\n            vendor: product.vendor,\r\n            productId: productId,\r\n            quantity: quantity,\r\n            totalPrice: totalPrice,\r\n            status: OrderStatus.Pending,\r\n            metadataURI: metadataURI\r\n        });\r\n\r\n        catalog.decrementInventory(productId, quantity);\r\n        payable(product.vendor).transfer(msg.value);\r\n        \r\n        emit OrderCreated(orderId, msg.sender, product.vendor, productId, quantity, totalPrice, metadataURI);\r\n    }\r\n\r\n    function updateStatus(uint256 orderId, OrderStatus status) external {\r\n        Order storage order_ = _orders[orderId];\r\n        require(order_.vendor != address(0), \"OrderManagement: missing order\");\r\n        require(\r\n            msg.sender == order_.vendor || accessControl.isAdmin(msg.sender),\r\n            \"OrderManagement: not allowed\"\r\n        );\r\n        order_.status = status;\r\n        emit OrderStatusUpdated(orderId, status);\r\n    }\r\n\r\n    function cancelOrder(uint256 orderId) external {\r\n        Order storage order_ = _orders[orderId];\r\n        require(order_.vendor != address(0), \"OrderManagement: missing order\");\r\n        require(order_.buyer == msg.sender, \"OrderManagement: not buyer\");\r\n        require(order_.status == OrderStatus.Pending, \"OrderManagement: already processed\");\r\n        order_.status = OrderStatus.Cancelled;\r\n        emit OrderStatusUpdated(orderId, OrderStatus.Cancelled);\r\n    }\r\n\r\n    function getOrder(uint256 orderId) external view returns (Order memory) {\r\n        Order memory order_ = _orders[orderId];\r\n        require(order_.vendor != address(0), \"OrderManagement: missing order\");\r\n        return order_;\r\n    }\r\n}\r\n",
  "sourcePath": "C:\\Users\\AdamBo\\Desktop\\ecom-web3\\smart-contracts\\contracts\\OrderManagement.sol",
  "compiler": {
    "name": "solc",
    "version": "0.8.19+commit.7dd6d404.Emscripten.clang"
  },
  "schemaVersion": "3.4.16",
  "updatedAt": "2025-12-21T11:32:10.290Z",
  "networkType": "ethereum",
  "devdoc": {
    "kind": "dev",
    "methods": {},
    "title": "OrderManagement",
    "version": 1
  },
  "userdoc": {
    "kind": "user",
    "methods": {},
    "notice": "Handles order creation between clients and vendors while keeping         lightweight metadata and emitting events that a backend indexer can enrich.",
    "version": 1
  }
}