{
  "contractName": "ProductCatalog",
  "abi": [
    {
      "inputs": [
        {
          "internalType": "address",
          "name": "accessControlAddress",
          "type": "address"
        }
      ],
      "stateMutability": "nonpayable",
      "type": "constructor"
    },
    {
      "anonymous": false,
      "inputs": [
        {
          "indexed": true,
          "internalType": "uint256",
          "name": "productId",
          "type": "uint256"
        },
        {
          "indexed": true,
          "internalType": "address",
          "name": "vendor",
          "type": "address"
        },
        {
          "indexed": false,
          "internalType": "string",
          "name": "metadataURI",
          "type": "string"
        },
        {
          "indexed": false,
          "internalType": "uint256",
          "name": "price",
          "type": "uint256"
        },
        {
          "indexed": false,
          "internalType": "uint256",
          "name": "quantity",
          "type": "uint256"
        }
      ],
      "name": "ProductCreated",
      "type": "event"
    },
    {
      "anonymous": false,
      "inputs": [
        {
          "indexed": true,
          "internalType": "uint256",
          "name": "productId",
          "type": "uint256"
        },
        {
          "indexed": false,
          "internalType": "bool",
          "name": "active",
          "type": "bool"
        }
      ],
      "name": "ProductStatusChanged",
      "type": "event"
    },
    {
      "anonymous": false,
      "inputs": [
        {
          "indexed": true,
          "internalType": "uint256",
          "name": "productId",
          "type": "uint256"
        },
        {
          "indexed": false,
          "internalType": "string",
          "name": "metadataURI",
          "type": "string"
        },
        {
          "indexed": false,
          "internalType": "uint256",
          "name": "price",
          "type": "uint256"
        },
        {
          "indexed": false,
          "internalType": "uint256",
          "name": "quantity",
          "type": "uint256"
        }
      ],
      "name": "ProductUpdated",
      "type": "event"
    },
    {
      "inputs": [],
      "name": "accessControl",
      "outputs": [
        {
          "internalType": "contract AccessControl",
          "name": "",
          "type": "address"
        }
      ],
      "stateMutability": "view",
      "type": "function",
      "constant": true
    },
    {
      "inputs": [],
      "name": "orderManagement",
      "outputs": [
        {
          "internalType": "address",
          "name": "",
          "type": "address"
        }
      ],
      "stateMutability": "view",
      "type": "function",
      "constant": true
    },
    {
      "inputs": [
        {
          "internalType": "string",
          "name": "metadataURI",
          "type": "string"
        },
        {
          "internalType": "uint256",
          "name": "price",
          "type": "uint256"
        },
        {
          "internalType": "uint256",
          "name": "quantity",
          "type": "uint256"
        }
      ],
      "name": "createProduct",
      "outputs": [
        {
          "internalType": "uint256",
          "name": "productId",
          "type": "uint256"
        }
      ],
      "stateMutability": "nonpayable",
      "type": "function"
    },
    {
      "inputs": [
        {
          "internalType": "uint256",
          "name": "productId",
          "type": "uint256"
        },
        {
          "internalType": "string",
          "name": "metadataURI",
          "type": "string"
        },
        {
          "internalType": "uint256",
          "name": "price",
          "type": "uint256"
        },
        {
          "internalType": "uint256",
          "name": "quantity",
          "type": "uint256"
        }
      ],
      "name": "updateProduct",
      "outputs": [],
      "stateMutability": "nonpayable",
      "type": "function"
    },
    {
      "inputs": [
        {
          "internalType": "uint256",
          "name": "productId",
          "type": "uint256"
        },
        {
          "internalType": "bool",
          "name": "active",
          "type": "bool"
        }
      ],
      "name": "setProductActive",
      "outputs": [],
      "stateMutability": "nonpayable",
      "type": "function"
    },
    {
      "inputs": [
        {
          "internalType": "address",
          "name": "_om",
          "type": "address"
        }
      ],
      "name": "setOrderManagement",
      "outputs": [],
      "stateMutability": "nonpayable",
      "type": "function"
    },
    {
      "inputs": [
        {
          "internalType": "uint256",
          "name": "productId",
          "type": "uint256"
        },
        {
          "internalType": "uint256",
          "name": "quantity",
          "type": "uint256"
        }
      ],
      "name": "decrementInventory",
      "outputs": [],
      "stateMutability": "nonpayable",
      "type": "function"
    },
    {
      "inputs": [
        {
          "internalType": "uint256",
          "name": "productId",
          "type": "uint256"
        }
      ],
      "name": "getProduct",
      "outputs": [
        {
          "components": [
            {
              "internalType": "uint256",
              "name": "id",
              "type": "uint256"
            },
            {
              "internalType": "address",
              "name": "vendor",
              "type": "address"
            },
            {
              "internalType": "string",
              "name": "metadataURI",
              "type": "string"
            },
            {
              "internalType": "uint256",
              "name": "price",
              "type": "uint256"
            },
            {
              "internalType": "uint256",
              "name": "quantity",
              "type": "uint256"
            },
            {
              "internalType": "bool",
              "name": "active",
              "type": "bool"
            }
          ],
          "internalType": "struct ProductCatalog.Product",
          "name": "",
          "type": "tuple"
        }
      ],
      "stateMutability": "view",
      "type": "function",
      "constant": true
    },
    {
      "inputs": [
        {
          "internalType": "uint256",
          "name": "productId",
          "type": "uint256"
        }
      ],
      "name": "productPrice",
      "outputs": [
        {
          "internalType": "uint256",
          "name": "",
          "type": "uint256"
        }
      ],
      "stateMutability": "view",
      "type": "function",
      "constant": true
    },
    {
      "inputs": [
        {
          "internalType": "uint256",
          "name": "productId",
          "type": "uint256"
        }
      ],
      "name": "productAvailable",
      "outputs": [
        {
          "internalType": "bool",
          "name": "",
          "type": "bool"
        }
      ],
      "stateMutability": "view",
      "type": "function",
      "constant": true
    }
  ],
  "bytecode": "0x60a060405260016000553480156200001657600080fd5b50604051620026253803806200262583398181016040528101906200003c919062000155565b80600073ffffffffffffffffffffffffffffffffffffffff168173ffffffffffffffffffffffffffffffffffffffff1603620000af576040517f08c379a0000000000000000000000000000000000000000000000000000000008152600401620000a690620001e8565b60405180910390fd5b8073ffffffffffffffffffffffffffffffffffffffff1660808173ffffffffffffffffffffffffffffffffffffffff168152505050506200020a565b600080fd5b600073ffffffffffffffffffffffffffffffffffffffff82169050919050565b60006200011d82620000f0565b9050919050565b6200012f8162000110565b81146200013b57600080fd5b50565b6000815190506200014f8162000124565b92915050565b6000602082840312156200016e576200016d620000eb565b5b60006200017e848285016200013e565b91505092915050565b600082825260208201905092915050565b7f416363657373436f6e74726f6c6c65643a207a65726f20616464726573730000600082015250565b6000620001d0601e8362000187565b9150620001dd8262000198565b602082019050919050565b600060208201905081810360008301526200020381620001c1565b9050919050565b6080516123dc62000249600039600081816102110152818161032e01528181610352015281816107d201528181610c2a015261113f01526123dc6000f3fe608060405234801561001057600080fd5b506004361061009e5760003560e01c80637bf12b1c116100665780637bf12b1c146101475780638106208014610177578063b9db15b414610193578063fd68b3ff146101c3578063fe3d07e4146101f35761009e565b806306233655146100a357806313007d55146100bf5780632d561787146100dd5780633108a387146100f95780635ee611c214610117575b600080fd5b6100bd60048036038101906100b89190611425565b61020f565b005b6100c761032c565b6040516100d491906114b1565b60405180910390f35b6100f760048036038101906100f29190611567565b610350565b005b61010161060a565b60405161010e91906115fe565b60405180910390f35b610131600480360381019061012c9190611619565b610630565b60405161013e9190611661565b60405180910390f35b610161600480360381019061015c919061167c565b6107ce565b60405161016e91906116ff565b60405180910390f35b610191600480360381019061018c9190611746565b610b25565b005b6101ad60048036038101906101a89190611619565b610d5b565b6040516101ba91906118cc565b60405180910390f35b6101dd60048036038101906101d89190611619565b610f22565b6040516101ea91906116ff565b60405180910390f35b61020d600480360381019061020891906118ee565b6110e6565b005b7f000000000000000000000000000000000000000000000000000000000000000073ffffffffffffffffffffffffffffffffffffffff166324d7806c336040518263ffffffff1660e01b815260040161026891906115fe565b602060405180830381865afa158015610285573d6000803e3d6000fd5b505050506040513d601f19601f820116820180604052508101906102a99190611943565b6102e8576040517f08c379a00000000000000000000000000000000000000000000000000000000081526004016102df906119cd565b60405180910390fd5b80600260006101000a81548173ffffffffffffffffffffffffffffffffffffffff021916908373ffffffffffffffffffffffffffffffffffffffff16021790555050565b7f000000000000000000000000000000000000000000000000000000000000000081565b7f000000000000000000000000000000000000000000000000000000000000000073ffffffffffffffffffffffffffffffffffffffff1663ee54d54f336040518263ffffffff1660e01b81526004016103a991906115fe565b602060405180830381865afa1580156103c6573d6000803e3d6000fd5b505050506040513d601f19601f820116820180604052508101906103ea9190611943565b610429576040517f08c379a000000000000000000000000000000000000000000000000000000000815260040161042090611a39565b60405180910390fd5b60006001600087815260200190815260200160002090503373ffffffffffffffffffffffffffffffffffffffff168160010160009054906101000a900473ffffffffffffffffffffffffffffffffffffffff1673ffffffffffffffffffffffffffffffffffffffff16146104d2576040517f08c379a00000000000000000000000000000000000000000000000000000000081526004016104c990611aa5565b60405180910390fd5b60008585905003610518576040517f08c379a000000000000000000000000000000000000000000000000000000000815260040161050f90611b11565b60405180910390fd5b6000831161055b576040517f08c379a000000000000000000000000000000000000000000000000000000000815260040161055290611b7d565b60405180910390fd5b6000821161059e576040517f08c379a000000000000000000000000000000000000000000000000000000000815260040161059590611be9565b60405180910390fd5b84848260020191826105b1929190611e45565b50828160030181905550818160040181905550857ff2f6cb462e8728158dbba5fcbe8181d88ca70bd5a0a5ad7f718c99ad80ba00a5868686866040516105fa9493929190611f51565b60405180910390a2505050505050565b600260009054906101000a900473ffffffffffffffffffffffffffffffffffffffff1681565b600080600160008481526020019081526020016000206040518060c0016040529081600082015481526020016001820160009054906101000a900473ffffffffffffffffffffffffffffffffffffffff1673ffffffffffffffffffffffffffffffffffffffff1673ffffffffffffffffffffffffffffffffffffffff1681526020016002820180546106c190611c72565b80601f01602080910402602001604051908101604052809291908181526020018280546106ed90611c72565b801561073a5780601f1061070f5761010080835404028352916020019161073a565b820191906000526020600020905b81548152906001019060200180831161071d57829003601f168201915b5050505050815260200160038201548152602001600482015481526020016005820160009054906101000a900460ff1615151515815250509050600073ffffffffffffffffffffffffffffffffffffffff16816020015173ffffffffffffffffffffffffffffffffffffffff16141580156107b657508060a001515b80156107c6575060008160800151115b915050919050565b60007f000000000000000000000000000000000000000000000000000000000000000073ffffffffffffffffffffffffffffffffffffffff1663ee54d54f336040518263ffffffff1660e01b815260040161082991906115fe565b602060405180830381865afa158015610846573d6000803e3d6000fd5b505050506040513d601f19601f8201168201806040525081019061086a9190611943565b6108a9576040517f08c379a00000000000000000000000000000000000000000000000000000000081526004016108a090611a39565b60405180910390fd5b600085859050036108ef576040517f08c379a00000000000000000000000000000000000000000000000000000000081526004016108e690611b11565b60405180910390fd5b60008311610932576040517f08c379a000000000000000000000000000000000000000000000000000000000815260040161092990611b7d565b60405180910390fd5b60008211610975576040517f08c379a000000000000000000000000000000000000000000000000000000000815260040161096c90611be9565b60405180910390fd5b60008081548092919061098790611fc0565b9190505590506040518060c001604052808281526020013373ffffffffffffffffffffffffffffffffffffffff16815260200186868080601f016020809104026020016040519081016040528093929190818152602001838380828437600081840152601f19601f82011690508083019250505050505050815260200184815260200183815260200160011515815250600160008381526020019081526020016000206000820151816000015560208201518160010160006101000a81548173ffffffffffffffffffffffffffffffffffffffff021916908373ffffffffffffffffffffffffffffffffffffffff1602179055506040820151816002019081610a909190612008565b50606082015181600301556080820151816004015560a08201518160050160006101000a81548160ff0219169083151502179055509050503373ffffffffffffffffffffffffffffffffffffffff16817f83684066a19b1f5686b5bacce959611511b3626a9f70fb2af303c99eb1e5133987878787604051610b159493929190611f51565b60405180910390a3949350505050565b6000600160008481526020019081526020016000209050600073ffffffffffffffffffffffffffffffffffffffff168160010160009054906101000a900473ffffffffffffffffffffffffffffffffffffffff1673ffffffffffffffffffffffffffffffffffffffff1603610bcf576040517f08c379a0000000000000000000000000000000000000000000000000000000008152600401610bc690612126565b60405180910390fd5b8060010160009054906101000a900473ffffffffffffffffffffffffffffffffffffffff1673ffffffffffffffffffffffffffffffffffffffff163373ffffffffffffffffffffffffffffffffffffffff161480610cc357507f000000000000000000000000000000000000000000000000000000000000000073ffffffffffffffffffffffffffffffffffffffff166324d7806c336040518263ffffffff1660e01b8152600401610c8191906115fe565b602060405180830381865afa158015610c9e573d6000803e3d6000fd5b505050506040513d601f19601f82011682018060405250810190610cc29190611943565b5b610d02576040517f08c379a0000000000000000000000000000000000000000000000000000000008152600401610cf990612192565b60405180910390fd5b818160050160006101000a81548160ff021916908315150217905550827f294753ecc63751eea2a69294d96d2d0e5e190f6e4bc85db582e73f8a74e1c60283604051610d4e9190611661565b60405180910390a2505050565b610d6361136f565b6000600160008481526020019081526020016000206040518060c0016040529081600082015481526020016001820160009054906101000a900473ffffffffffffffffffffffffffffffffffffffff1673ffffffffffffffffffffffffffffffffffffffff1673ffffffffffffffffffffffffffffffffffffffff168152602001600282018054610df390611c72565b80601f0160208091040260200160405190810160405280929190818152602001828054610e1f90611c72565b8015610e6c5780601f10610e4157610100808354040283529160200191610e6c565b820191906000526020600020905b815481529060010190602001808311610e4f57829003601f168201915b5050505050815260200160038201548152602001600482015481526020016005820160009054906101000a900460ff1615151515815250509050600073ffffffffffffffffffffffffffffffffffffffff16816020015173ffffffffffffffffffffffffffffffffffffffff1603610f19576040517f08c379a0000000000000000000000000000000000000000000000000000000008152600401610f1090612126565b60405180910390fd5b80915050919050565b600080600160008481526020019081526020016000206040518060c0016040529081600082015481526020016001820160009054906101000a900473ffffffffffffffffffffffffffffffffffffffff1673ffffffffffffffffffffffffffffffffffffffff1673ffffffffffffffffffffffffffffffffffffffff168152602001600282018054610fb390611c72565b80601f0160208091040260200160405190810160405280929190818152602001828054610fdf90611c72565b801561102c5780601f106110015761010080835404028352916020019161102c565b820191906000526020600020905b81548152906001019060200180831161100f57829003601f168201915b5050505050815260200160038201548152602001600482015481526020016005820160009054906101000a900460ff1615151515815250509050600073ffffffffffffffffffffffffffffffffffffffff16816020015173ffffffffffffffffffffffffffffffffffffffff16036110d9576040517f08c379a00000000000000000000000000000000000000000000000000000000081526004016110d090612126565b60405180910390fd5b8060600151915050919050565b600260009054906101000a900473ffffffffffffffffffffffffffffffffffffffff1673ffffffffffffffffffffffffffffffffffffffff163373ffffffffffffffffffffffffffffffffffffffff1614806111d857507f000000000000000000000000000000000000000000000000000000000000000073ffffffffffffffffffffffffffffffffffffffff166324d7806c336040518263ffffffff1660e01b815260040161119691906115fe565b602060405180830381865afa1580156111b3573d6000803e3d6000fd5b505050506040513d601f19601f820116820180604052508101906111d79190611943565b5b611217576040517f08c379a000000000000000000000000000000000000000000000000000000000815260040161120e906121fe565b60405180910390fd5b6000600160008481526020019081526020016000209050600073ffffffffffffffffffffffffffffffffffffffff168160010160009054906101000a900473ffffffffffffffffffffffffffffffffffffffff1673ffffffffffffffffffffffffffffffffffffffff16036112c1576040517f08c379a00000000000000000000000000000000000000000000000000000000081526004016112b890612126565b60405180910390fd5b8181600401541015611308576040517f08c379a00000000000000000000000000000000000000000000000000000000081526004016112ff90612290565b60405180910390fd5b8181600401600082825461131c91906122b0565b92505081905550827ff2f6cb462e8728158dbba5fcbe8181d88ca70bd5a0a5ad7f718c99ad80ba00a5826002018360030154846004015460405161136293929190612368565b60405180910390a2505050565b6040518060c0016040528060008152602001600073ffffffffffffffffffffffffffffffffffffffff1681526020016060815260200160008152602001600081526020016000151581525090565b600080fd5b600080fd5b600073ffffffffffffffffffffffffffffffffffffffff82169050919050565b60006113f2826113c7565b9050919050565b611402816113e7565b811461140d57600080fd5b50565b60008135905061141f816113f9565b92915050565b60006020828403121561143b5761143a6113bd565b5b600061144984828501611410565b91505092915050565b6000819050919050565b600061147761147261146d846113c7565b611452565b6113c7565b9050919050565b60006114898261145c565b9050919050565b600061149b8261147e565b9050919050565b6114ab81611490565b82525050565b60006020820190506114c660008301846114a2565b92915050565b6000819050919050565b6114df816114cc565b81146114ea57600080fd5b50565b6000813590506114fc816114d6565b92915050565b600080fd5b600080fd5b600080fd5b60008083601f84011261152757611526611502565b5b8235905067ffffffffffffffff81111561154457611543611507565b5b6020830191508360018202830111156115605761155f61150c565b5b9250929050565b600080600080600060808688031215611583576115826113bd565b5b6000611591888289016114ed565b955050602086013567ffffffffffffffff8111156115b2576115b16113c2565b5b6115be88828901611511565b945094505060406115d1888289016114ed565b92505060606115e2888289016114ed565b9150509295509295909350565b6115f8816113e7565b82525050565b600060208201905061161360008301846115ef565b92915050565b60006020828403121561162f5761162e6113bd565b5b600061163d848285016114ed565b91505092915050565b60008115159050919050565b61165b81611646565b82525050565b60006020820190506116766000830184611652565b92915050565b60008060008060608587031215611696576116956113bd565b5b600085013567ffffffffffffffff8111156116b4576116b36113c2565b5b6116c087828801611511565b945094505060206116d3878288016114ed565b92505060406116e4878288016114ed565b91505092959194509250565b6116f9816114cc565b82525050565b600060208201905061171460008301846116f0565b92915050565b61172381611646565b811461172e57600080fd5b50565b6000813590506117408161171a565b92915050565b6000806040838503121561175d5761175c6113bd565b5b600061176b858286016114ed565b925050602061177c85828601611731565b9150509250929050565b61178f816114cc565b82525050565b61179e816113e7565b82525050565b600081519050919050565b600082825260208201905092915050565b60005b838110156117de5780820151818401526020810190506117c3565b60008484015250505050565b6000601f19601f8301169050919050565b6000611806826117a4565b61181081856117af565b93506118208185602086016117c0565b611829816117ea565b840191505092915050565b61183d81611646565b82525050565b600060c08301600083015161185b6000860182611786565b50602083015161186e6020860182611795565b506040830151848203604086015261188682826117fb565b915050606083015161189b6060860182611786565b5060808301516118ae6080860182611786565b5060a08301516118c160a0860182611834565b508091505092915050565b600060208201905081810360008301526118e68184611843565b905092915050565b60008060408385031215611905576119046113bd565b5b6000611913858286016114ed565b9250506020611924858286016114ed565b9150509250929050565b60008151905061193d8161171a565b92915050565b600060208284031215611959576119586113bd565b5b60006119678482850161192e565b91505092915050565b600082825260208201905092915050565b7f416363657373436f6e74726f6c6c65643a2061646d696e206f6e6c7900000000600082015250565b60006119b7601c83611970565b91506119c282611981565b602082019050919050565b600060208201905081810360008301526119e6816119aa565b9050919050565b7f416363657373436f6e74726f6c6c65643a2076656e646f72206f6e6c79000000600082015250565b6000611a23601d83611970565b9150611a2e826119ed565b602082019050919050565b60006020820190508181036000830152611a5281611a16565b9050919050565b7f50726f64756374436174616c6f673a206e6f74206f776e657200000000000000600082015250565b6000611a8f601983611970565b9150611a9a82611a59565b602082019050919050565b60006020820190508181036000830152611abe81611a82565b9050919050565b7f50726f64756374436174616c6f673a20656d707479206d657461646174610000600082015250565b6000611afb601e83611970565b9150611b0682611ac5565b602082019050919050565b60006020820190508181036000830152611b2a81611aee565b9050919050565b7f50726f64756374436174616c6f673a207072696365207a65726f000000000000600082015250565b6000611b67601a83611970565b9150611b7282611b31565b602082019050919050565b60006020820190508181036000830152611b9681611b5a565b9050919050565b7f50726f64756374436174616c6f673a207175616e74697479207a65726f000000600082015250565b6000611bd3601d83611970565b9150611bde82611b9d565b602082019050919050565b60006020820190508181036000830152611c0281611bc6565b9050919050565b600082905092915050565b7f4e487b7100000000000000000000000000000000000000000000000000000000600052604160045260246000fd5b7f4e487b7100000000000000000000000000000000000000000000000000000000600052602260045260246000fd5b60006002820490506001821680611c8a57607f821691505b602082108103611c9d57611c9c611c43565b5b50919050565b60008190508160005260206000209050919050565b60006020601f8301049050919050565b600082821b905092915050565b600060088302611d057fffffffffffffffffffffffffffffffffffffffffffffffffffffffffffffffff82611cc8565b611d0f8683611cc8565b95508019841693508086168417925050509392505050565b6000611d42611d3d611d38846114cc565b611452565b6114cc565b9050919050565b6000819050919050565b611d5c83611d27565b611d70611d6882611d49565b848454611cd5565b825550505050565b600090565b611d85611d78565b611d90818484611d53565b505050565b5b81811015611db457611da9600082611d7d565b600181019050611d96565b5050565b601f821115611df957611dca81611ca3565b611dd384611cb8565b81016020851015611de2578190505b611df6611dee85611cb8565b830182611d95565b50505b505050565b600082821c905092915050565b6000611e1c60001984600802611dfe565b1980831691505092915050565b6000611e358383611e0b565b9150826002028217905092915050565b611e4f8383611c09565b67ffffffffffffffff811115611e6857611e67611c14565b5b611e728254611c72565b611e7d828285611db8565b6000601f831160018114611eac5760008415611e9a578287013590505b611ea48582611e29565b865550611f0c565b601f198416611eba86611ca3565b60005b82811015611ee257848901358255600182019150602085019450602081019050611ebd565b86831015611eff5784890135611efb601f891682611e0b565b8355505b6001600288020188555050505b50505050505050565b82818337600083830152505050565b6000611f308385611970565b9350611f3d838584611f15565b611f46836117ea565b840190509392505050565b60006060820190508181036000830152611f6c818688611f24565b9050611f7b60208301856116f0565b611f8860408301846116f0565b95945050505050565b7f4e487b7100000000000000000000000000000000000000000000000000000000600052601160045260246000fd5b6000611fcb826114cc565b91507fffffffffffffffffffffffffffffffffffffffffffffffffffffffffffffffff8203611ffd57611ffc611f91565b5b600182019050919050565b612011826117a4565b67ffffffffffffffff81111561202a57612029611c14565b5b6120348254611c72565b61203f828285611db8565b600060209050601f8311600181146120725760008415612060578287015190505b61206a8582611e29565b8655506120d2565b601f19841661208086611ca3565b60005b828110156120a857848901518255600182019150602085019450602081019050612083565b868310156120c557848901516120c1601f891682611e0b565b8355505b6001600288020188555050505b505050505050565b7f50726f64756374436174616c6f673a206d697373696e672070726f6475637400600082015250565b6000612110601f83611970565b915061211b826120da565b602082019050919050565b6000602082019050818103600083015261213f81612103565b9050919050565b7f50726f64756374436174616c6f673a206e6f7420616c6c6f7765640000000000600082015250565b600061217c601b83611970565b915061218782612146565b602082019050919050565b600060208201905081810360008301526121ab8161216f565b9050919050565b7f50726f64756374436174616c6f673a20756e617574686f72697a656400000000600082015250565b60006121e8601c83611970565b91506121f3826121b2565b602082019050919050565b60006020820190508181036000830152612217816121db565b9050919050565b7f50726f64756374436174616c6f673a20696e73756666696369656e7420696e7660008201527f656e746f72790000000000000000000000000000000000000000000000000000602082015250565b600061227a602683611970565b91506122858261221e565b604082019050919050565b600060208201905081810360008301526122a98161226d565b9050919050565b60006122bb826114cc565b91506122c6836114cc565b92508282039050818111156122de576122dd611f91565b5b92915050565b600081546122f181611c72565b6122fb8186611970565b94506001821660008114612316576001811461232c5761235f565b60ff19831686528115156020028601935061235f565b61233585611ca3565b60005b8381101561235757815481890152600182019150602081019050612338565b808801955050505b50505092915050565b6000606082019050818103600083015261238281866122e4565b905061239160208301856116f0565b61239e60408301846116f0565b94935050505056fea2646970667358221220baa06385c7ec70003ced320be67e652c7dc155eb17190384dfdb426a1b2486fd64736f6c63430008130033",
  "immutableReferences": {
    "420": [
      {
        "length": 32,
        "start": 529
      },
      {
        "length": 32,
        "start": 814
      },
      {
        "length": 32,
        "start": 850
      },
      {
        "length": 32,
        "start": 2002
      },
      {
        "length": 32,
        "start": 3114
      },
      {
        "length": 32,
        "start": 4415
      }
    ]
  },
  "source": "// SPDX-License-Identifier: MIT\r\npragma solidity ^0.8.19;\r\n\r\nimport \"./AccessControlled.sol\";\r\n\r\n/**\r\n * @title ProductCatalog\r\n * @notice Manages vendor products stored on-chain (lightweight metadata pointer + pricing).\r\n *         Rich content (images, specs) should live off-chain; this contract emits events for indexing.\r\n */\r\ncontract ProductCatalog is AccessControlled {\r\n    struct Product {\r\n        uint256 id;\r\n        address vendor;\r\n        string metadataURI;\r\n        uint256 price; // price per unit in wei\r\n        uint256 quantity;\r\n        bool active;\r\n    }\r\n\r\n    uint256 private _nextProductId = 1;\r\n    mapping(uint256 => Product) private _products;\r\n\r\n    event ProductCreated(\r\n        uint256 indexed productId,\r\n        address indexed vendor,\r\n        string metadataURI,\r\n        uint256 price,\r\n        uint256 quantity\r\n    );\r\n    event ProductUpdated(\r\n        uint256 indexed productId,\r\n        string metadataURI,\r\n        uint256 price,\r\n        uint256 quantity\r\n    );\r\n    event ProductStatusChanged(uint256 indexed productId, bool active);\r\n\r\n    constructor(address accessControlAddress) AccessControlled(accessControlAddress) {}\r\n\r\n    function createProduct(\r\n        string calldata metadataURI,\r\n        uint256 price,\r\n        uint256 quantity\r\n    ) external onlyVendor returns (uint256 productId) {\r\n        require(bytes(metadataURI).length != 0, \"ProductCatalog: empty metadata\");\r\n        require(price > 0, \"ProductCatalog: price zero\");\r\n        require(quantity > 0, \"ProductCatalog: quantity zero\");\r\n\r\n        productId = _nextProductId++;\r\n        _products[productId] = Product({\r\n            id: productId,\r\n            vendor: msg.sender,\r\n            metadataURI: metadataURI,\r\n            price: price,\r\n            quantity: quantity,\r\n            active: true\r\n        });\r\n        emit ProductCreated(productId, msg.sender, metadataURI, price, quantity);\r\n    }\r\n\r\n    function updateProduct(\r\n        uint256 productId,\r\n        string calldata metadataURI,\r\n        uint256 price,\r\n        uint256 quantity\r\n    ) external onlyVendor {\r\n        Product storage product = _products[productId];\r\n        require(product.vendor == msg.sender, \"ProductCatalog: not owner\");\r\n        require(bytes(metadataURI).length != 0, \"ProductCatalog: empty metadata\");\r\n        require(price > 0, \"ProductCatalog: price zero\");\r\n        require(quantity > 0, \"ProductCatalog: quantity zero\");\r\n\r\n        product.metadataURI = metadataURI;\r\n        product.price = price;\r\n        product.quantity = quantity;\r\n        emit ProductUpdated(productId, metadataURI, price, quantity);\r\n    }\r\n\r\n    function setProductActive(uint256 productId, bool active) external {\r\n        Product storage product = _products[productId];\r\n        require(product.vendor != address(0), \"ProductCatalog: missing product\");\r\n        require(\r\n            msg.sender == product.vendor || accessControl.isAdmin(msg.sender),\r\n            \"ProductCatalog: not allowed\"\r\n        );\r\n        product.active = active;\r\n        emit ProductStatusChanged(productId, active);\r\n    }\r\n\r\n    address public orderManagement;\r\n\r\n    function setOrderManagement(address _om) external onlyAdmin {\r\n        orderManagement = _om;\r\n    }\r\n\r\n    modifier onlyOrderManagement() {\r\n        require(msg.sender == orderManagement, \"ProductCatalog: unauthorized\");\r\n        _;\r\n    }\r\n\r\n    function decrementInventory(uint256 productId, uint256 quantity) external {\r\n        require(msg.sender == orderManagement || accessControl.isAdmin(msg.sender), \"ProductCatalog: unauthorized\");\r\n        Product storage product = _products[productId];\r\n        require(product.vendor != address(0), \"ProductCatalog: missing product\");\r\n        require(product.quantity >= quantity, \"ProductCatalog: insufficient inventory\");\r\n        product.quantity -= quantity;\r\n        emit ProductUpdated(productId, product.metadataURI, product.price, product.quantity);\r\n    }\r\n\r\n    function getProduct(uint256 productId) external view returns (Product memory) {\r\n        Product memory product = _products[productId];\r\n        require(product.vendor != address(0), \"ProductCatalog: missing product\");\r\n        return product;\r\n    }\r\n\r\n    function productPrice(uint256 productId) external view returns (uint256) {\r\n        Product memory product = _products[productId];\r\n        require(product.vendor != address(0), \"ProductCatalog: missing product\");\r\n        return product.price;\r\n    }\r\n\r\n    function productAvailable(uint256 productId) external view returns (bool) {\r\n        Product memory product = _products[productId];\r\n        return product.vendor != address(0) && product.active && product.quantity > 0;\r\n    }\r\n}\r\n",
  "sourcePath": "C:\\Users\\AdamBo\\Desktop\\ecom-web3\\smart-contracts\\contracts\\ProductCatalog.sol",
  "compiler": {
    "name": "solc",
    "version": "0.8.19+commit.7dd6d404.Emscripten.clang"
  },
  "schemaVersion": "3.4.16",
  "updatedAt": "2025-12-21T11:32:10.280Z",
  "networkType": "ethereum",
  "devdoc": {
    "kind": "dev",
    "methods": {},
    "title": "ProductCatalog",
    "version": 1
  },
  "userdoc": {
    "kind": "user",
    "methods": {},
    "notice": "Manages vendor products stored on-chain (lightweight metadata pointer + pricing).         Rich content (images, specs) should live off-chain; this contract emits events for indexing.",
    "version": 1
  }
}