{
  "contractName": "UserManagement",
  "abi": [
    {
      "inputs": [
        {
          "internalType": "address",
          "name": "accessControlAddress",
          "type": "address"
        }
      ],
      "stateMutability": "nonpayable",
      "type": "constructor"
    },
    {
      "anonymous": false,
      "inputs": [
        {
          "indexed": true,
          "internalType": "address",
          "name": "account",
          "type": "address"
        }
      ],
      "name": "UserProfileDeleted",
      "type": "event"
    },
    {
      "anonymous": false,
      "inputs": [
        {
          "indexed": true,
          "internalType": "address",
          "name": "account",
          "type": "address"
        },
        {
          "indexed": false,
          "internalType": "string",
          "name": "metadataURI",
          "type": "string"
        }
      ],
      "name": "UserProfileUpdated",
      "type": "event"
    },
    {
      "inputs": [],
      "name": "accessControl",
      "outputs": [
        {
          "internalType": "contract AccessControl",
          "name": "",
          "type": "address"
        }
      ],
      "stateMutability": "view",
      "type": "function",
      "constant": true
    },
    {
      "inputs": [
        {
          "internalType": "string",
          "name": "metadataURI",
          "type": "string"
        }
      ],
      "name": "upsertProfile",
      "outputs": [],
      "stateMutability": "nonpayable",
      "type": "function"
    },
    {
      "inputs": [
        {
          "internalType": "address",
          "name": "account",
          "type": "address"
        },
        {
          "internalType": "string",
          "name": "metadataURI",
          "type": "string"
        }
      ],
      "name": "adminSetProfile",
      "outputs": [],
      "stateMutability": "nonpayable",
      "type": "function"
    },
    {
      "inputs": [
        {
          "internalType": "address",
          "name": "account",
          "type": "address"
        }
      ],
      "name": "deleteProfile",
      "outputs": [],
      "stateMutability": "nonpayable",
      "type": "function"
    },
    {
      "inputs": [
        {
          "internalType": "address",
          "name": "account",
          "type": "address"
        }
      ],
      "name": "getProfile",
      "outputs": [
        {
          "internalType": "string",
          "name": "metadataURI",
          "type": "string"
        },
        {
          "internalType": "bool",
          "name": "exists",
          "type": "bool"
        }
      ],
      "stateMutability": "view",
      "type": "function",
      "constant": true
    }
  ],
  "bytecode": "0x60a06040523480156200001157600080fd5b506040516200162a3803806200162a833981810160405281019062000037919062000150565b80600073ffffffffffffffffffffffffffffffffffffffff168173ffffffffffffffffffffffffffffffffffffffff1603620000aa576040517f08c379a0000000000000000000000000000000000000000000000000000000008152600401620000a190620001e3565b60405180910390fd5b8073ffffffffffffffffffffffffffffffffffffffff1660808173ffffffffffffffffffffffffffffffffffffffff1681525050505062000205565b600080fd5b600073ffffffffffffffffffffffffffffffffffffffff82169050919050565b60006200011882620000eb565b9050919050565b6200012a816200010b565b81146200013657600080fd5b50565b6000815190506200014a816200011f565b92915050565b600060208284031215620001695762000168620000e6565b5b6000620001798482850162000139565b91505092915050565b600082825260208201905092915050565b7f416363657373436f6e74726f6c6c65643a207a65726f20616464726573730000600082015250565b6000620001cb601e8362000182565b9150620001d88262000193565b602082019050919050565b60006020820190508181036000830152620001fe81620001bc565b9050919050565b6080516113e6620002446000396000818161021201528181610236015281816102d601528181610377015281816105be015261083a01526113e66000f3fe608060405234801561001057600080fd5b50600436106100575760003560e01c80630f53a4701461005c57806313007d551461008d578063495e6dc5146100ab57806352869c07146100c7578063a0441f29146100e3575b600080fd5b61007660048036038101906100719190610b10565b6100ff565b604051610084929190610be8565b60405180910390f35b610095610210565b6040516100a29190610c77565b60405180910390f35b6100c560048036038101906100c09190610cf7565b610234565b005b6100e160048036038101906100dc9190610d44565b6105bc565b005b6100fd60048036038101906100f89190610b10565b610803565b005b60606000806000808573ffffffffffffffffffffffffffffffffffffffff1673ffffffffffffffffffffffffffffffffffffffff16815260200190815260200160002060405180604001604052908160008201805461015d90610dd3565b80601f016020809104026020016040519081016040528092919081815260200182805461018990610dd3565b80156101d65780601f106101ab576101008083540402835291602001916101d6565b820191906000526020600020905b8154815290600101906020018083116101b957829003601f168201915b505050505081526020016001820160009054906101000a900460ff1615151515815250509050806000015181602001519250925050915091565b7f000000000000000000000000000000000000000000000000000000000000000081565b7f000000000000000000000000000000000000000000000000000000000000000073ffffffffffffffffffffffffffffffffffffffff166324d7806c336040518263ffffffff1660e01b815260040161028d9190610e13565b602060405180830381865afa1580156102aa573d6000803e3d6000fd5b505050506040513d601f19601f820116820180604052508101906102ce9190610e5a565b8061036f57507f000000000000000000000000000000000000000000000000000000000000000073ffffffffffffffffffffffffffffffffffffffff1663ee54d54f336040518263ffffffff1660e01b815260040161032d9190610e13565b602060405180830381865afa15801561034a573d6000803e3d6000fd5b505050506040513d601f19601f8201168201806040525081019061036e9190610e5a565b5b8061041057507f000000000000000000000000000000000000000000000000000000000000000073ffffffffffffffffffffffffffffffffffffffff166384b7964f336040518263ffffffff1660e01b81526004016103ce9190610e13565b602060405180830381865afa1580156103eb573d6000803e3d6000fd5b505050506040513d601f19601f8201168201806040525081019061040f9190610e5a565b5b61044f576040517f08c379a000000000000000000000000000000000000000000000000000000000815260040161044690610ed3565b60405180910390fd5b60008282905003610495576040517f08c379a000000000000000000000000000000000000000000000000000000000815260040161048c90610f3f565b60405180910390fd5b604051806040016040528083838080601f016020809104026020016040519081016040528093929190818152602001838380828437600081840152601f19601f820116905080830192505050505050508152602001600115158152506000803373ffffffffffffffffffffffffffffffffffffffff1673ffffffffffffffffffffffffffffffffffffffff1681526020019081526020016000206000820151816000019081610544919061113a565b5060208201518160010160006101000a81548160ff0219169083151502179055509050503373ffffffffffffffffffffffffffffffffffffffff167f9ab5b01c08788936fb2b48da858665afe9fa06d32e17dc49e0510c24ba05c98383836040516105b0929190611248565b60405180910390a25050565b7f000000000000000000000000000000000000000000000000000000000000000073ffffffffffffffffffffffffffffffffffffffff166324d7806c336040518263ffffffff1660e01b81526004016106159190610e13565b602060405180830381865afa158015610632573d6000803e3d6000fd5b505050506040513d601f19601f820116820180604052508101906106569190610e5a565b610695576040517f08c379a000000000000000000000000000000000000000000000000000000000815260040161068c906112b8565b60405180910390fd5b600082829050036106db576040517f08c379a00000000000000000000000000000000000000000000000000000000081526004016106d290610f3f565b60405180910390fd5b604051806040016040528083838080601f016020809104026020016040519081016040528093929190818152602001838380828437600081840152601f19601f820116905080830192505050505050508152602001600115158152506000808573ffffffffffffffffffffffffffffffffffffffff1673ffffffffffffffffffffffffffffffffffffffff168152602001908152602001600020600082015181600001908161078a919061113a565b5060208201518160010160006101000a81548160ff0219169083151502179055509050508273ffffffffffffffffffffffffffffffffffffffff167f9ab5b01c08788936fb2b48da858665afe9fa06d32e17dc49e0510c24ba05c98383836040516107f6929190611248565b60405180910390a2505050565b8073ffffffffffffffffffffffffffffffffffffffff163373ffffffffffffffffffffffffffffffffffffffff1614806108d357507f000000000000000000000000000000000000000000000000000000000000000073ffffffffffffffffffffffffffffffffffffffff166324d7806c336040518263ffffffff1660e01b81526004016108919190610e13565b602060405180830381865afa1580156108ae573d6000803e3d6000fd5b505050506040513d601f19601f820116820180604052508101906108d29190610e5a565b5b610912576040517f08c379a000000000000000000000000000000000000000000000000000000000815260040161090990611324565b60405180910390fd5b6000808273ffffffffffffffffffffffffffffffffffffffff1673ffffffffffffffffffffffffffffffffffffffff16815260200190815260200160002060010160009054906101000a900460ff166109a0576040517f08c379a000000000000000000000000000000000000000000000000000000000815260040161099790611390565b60405180910390fd5b6000808273ffffffffffffffffffffffffffffffffffffffff1673ffffffffffffffffffffffffffffffffffffffff168152602001908152602001600020600080820160006109ef9190610a4b565b6001820160006101000a81549060ff021916905550508073ffffffffffffffffffffffffffffffffffffffff167fe00f5bb3d65c009f43c278472080531a0ae63aa5bdd824d452b6bab09f8b8d1c60405160405180910390a250565b508054610a5790610dd3565b6000825580601f10610a695750610a88565b601f016020900490600052602060002090810190610a879190610a8b565b5b50565b5b80821115610aa4576000816000905550600101610a8c565b5090565b600080fd5b600080fd5b600073ffffffffffffffffffffffffffffffffffffffff82169050919050565b6000610add82610ab2565b9050919050565b610aed81610ad2565b8114610af857600080fd5b50565b600081359050610b0a81610ae4565b92915050565b600060208284031215610b2657610b25610aa8565b5b6000610b3484828501610afb565b91505092915050565b600081519050919050565b600082825260208201905092915050565b60005b83811015610b77578082015181840152602081019050610b5c565b60008484015250505050565b6000601f19601f8301169050919050565b6000610b9f82610b3d565b610ba98185610b48565b9350610bb9818560208601610b59565b610bc281610b83565b840191505092915050565b60008115159050919050565b610be281610bcd565b82525050565b60006040820190508181036000830152610c028185610b94565b9050610c116020830184610bd9565b9392505050565b6000819050919050565b6000610c3d610c38610c3384610ab2565b610c18565b610ab2565b9050919050565b6000610c4f82610c22565b9050919050565b6000610c6182610c44565b9050919050565b610c7181610c56565b82525050565b6000602082019050610c8c6000830184610c68565b92915050565b600080fd5b600080fd5b600080fd5b60008083601f840112610cb757610cb6610c92565b5b8235905067ffffffffffffffff811115610cd457610cd3610c97565b5b602083019150836001820283011115610cf057610cef610c9c565b5b9250929050565b60008060208385031215610d0e57610d0d610aa8565b5b600083013567ffffffffffffffff811115610d2c57610d2b610aad565b5b610d3885828601610ca1565b92509250509250929050565b600080600060408486031215610d5d57610d5c610aa8565b5b6000610d6b86828701610afb565b935050602084013567ffffffffffffffff811115610d8c57610d8b610aad565b5b610d9886828701610ca1565b92509250509250925092565b7f4e487b7100000000000000000000000000000000000000000000000000000000600052602260045260246000fd5b60006002820490506001821680610deb57607f821691505b602082108103610dfe57610dfd610da4565b5b50919050565b610e0d81610ad2565b82525050565b6000602082019050610e286000830184610e04565b92915050565b610e3781610bcd565b8114610e4257600080fd5b50565b600081519050610e5481610e2e565b92915050565b600060208284031215610e7057610e6f610aa8565b5b6000610e7e84828501610e45565b91505092915050565b7f416363657373436f6e74726f6c6c65643a20756e726567697374657265640000600082015250565b6000610ebd601e83610b48565b9150610ec882610e87565b602082019050919050565b60006020820190508181036000830152610eec81610eb0565b9050919050565b7f557365724d616e6167656d656e743a20656d707479206d657461646174610000600082015250565b6000610f29601e83610b48565b9150610f3482610ef3565b602082019050919050565b60006020820190508181036000830152610f5881610f1c565b9050919050565b7f4e487b7100000000000000000000000000000000000000000000000000000000600052604160045260246000fd5b60008190508160005260206000209050919050565b60006020601f8301049050919050565b600082821b905092915050565b600060088302610ff07fffffffffffffffffffffffffffffffffffffffffffffffffffffffffffffffff82610fb3565b610ffa8683610fb3565b95508019841693508086168417925050509392505050565b6000819050919050565b600061103761103261102d84611012565b610c18565b611012565b9050919050565b6000819050919050565b6110518361101c565b61106561105d8261103e565b848454610fc0565b825550505050565b600090565b61107a61106d565b611085818484611048565b505050565b5b818110156110a95761109e600082611072565b60018101905061108b565b5050565b601f8211156110ee576110bf81610f8e565b6110c884610fa3565b810160208510156110d7578190505b6110eb6110e385610fa3565b83018261108a565b50505b505050565b600082821c905092915050565b6000611111600019846008026110f3565b1980831691505092915050565b600061112a8383611100565b9150826002028217905092915050565b61114382610b3d565b67ffffffffffffffff81111561115c5761115b610f5f565b5b6111668254610dd3565b6111718282856110ad565b600060209050601f8311600181146111a45760008415611192578287015190505b61119c858261111e565b865550611204565b601f1984166111b286610f8e565b60005b828110156111da578489015182556001820191506020850194506020810190506111b5565b868310156111f757848901516111f3601f891682611100565b8355505b6001600288020188555050505b505050505050565b82818337600083830152505050565b60006112278385610b48565b935061123483858461120c565b61123d83610b83565b840190509392505050565b6000602082019050818103600083015261126381848661121b565b90509392505050565b7f416363657373436f6e74726f6c6c65643a2061646d696e206f6e6c7900000000600082015250565b60006112a2601c83610b48565b91506112ad8261126c565b602082019050919050565b600060208201905081810360008301526112d181611295565b9050919050565b7f557365724d616e6167656d656e743a206e6f7420616c6c6f7765640000000000600082015250565b600061130e601b83610b48565b9150611319826112d8565b602082019050919050565b6000602082019050818103600083015261133d81611301565b9050919050565b7f557365724d616e6167656d656e743a2070726f66696c65206d697373696e6700600082015250565b600061137a601f83610b48565b915061138582611344565b602082019050919050565b600060208201905081810360008301526113a98161136d565b905091905056fea2646970667358221220c30d99cba993964418ec5b7bf8d1f52d3227a46fd64eccc46dc5cf0e81a22cc864736f6c63430008130033",
  "immutableReferences": {
    "420": [
      {
        "length": 32,
        "start": 530
      },
      {
        "length": 32,
        "start": 566
      },
      {
        "length": 32,
        "start": 726
      },
      {
        "length": 32,
        "start": 887
      },
      {
        "length": 32,
        "start": 1470
      },
      {
        "length": 32,
        "start": 2106
      }
    ]
  },
  "source": "// SPDX-License-Identifier: MIT\r\npragma solidity ^0.8.19;\r\n\r\nimport \"./AccessControlled.sol\";\r\n\r\n/**\r\n * @title UserManagement\r\n * @notice Stores lightweight on-chain metadata references for registered users.\r\n *         The actual profile data (names, images) is expected to live off-chain (e.g. IPFS),\r\n *         and this contract only keeps the URI pointer plus emitted events for indexing.\r\n */\r\ncontract UserManagement is AccessControlled {\r\n    struct UserProfile {\r\n        string metadataURI;\r\n        bool exists;\r\n    }\r\n\r\n    mapping(address => UserProfile) private _profiles;\r\n\r\n    event UserProfileUpdated(address indexed account, string metadataURI);\r\n    event UserProfileDeleted(address indexed account);\r\n\r\n    constructor(address accessControlAddress) AccessControlled(accessControlAddress) {}\r\n\r\n    /**\r\n     * @notice Upsert the metadata URI for the caller.\r\n     *         Caller must already hold at least one role (client/vendor/admin).\r\n     */\r\n    function upsertProfile(string calldata metadataURI) external onlyKnownRole {\r\n        require(bytes(metadataURI).length != 0, \"UserManagement: empty metadata\");\r\n        _profiles[msg.sender] = UserProfile({metadataURI: metadataURI, exists: true});\r\n        emit UserProfileUpdated(msg.sender, metadataURI);\r\n    }\r\n\r\n    /**\r\n     * @notice Admins can set or override metadata for any account (e.g. vendor onboarding).\r\n     */\r\n    function adminSetProfile(address account, string calldata metadataURI) external onlyAdmin {\r\n        require(bytes(metadataURI).length != 0, \"UserManagement: empty metadata\");\r\n        _profiles[account] = UserProfile({metadataURI: metadataURI, exists: true});\r\n        emit UserProfileUpdated(account, metadataURI);\r\n    }\r\n\r\n    /**\r\n     * @notice Remove profile metadata (does not revoke roles, handled by AccessControl).\r\n     */\r\n    function deleteProfile(address account) external {\r\n        require(\r\n            msg.sender == account || accessControl.isAdmin(msg.sender),\r\n            \"UserManagement: not allowed\"\r\n        );\r\n        require(_profiles[account].exists, \"UserManagement: profile missing\");\r\n        delete _profiles[account];\r\n        emit UserProfileDeleted(account);\r\n    }\r\n\r\n    function getProfile(address account) external view returns (string memory metadataURI, bool exists) {\r\n        UserProfile memory profile = _profiles[account];\r\n        return (profile.metadataURI, profile.exists);\r\n    }\r\n}\r\n",
  "sourcePath": "C:\\Users\\AdamBo\\Desktop\\ecom-web3\\smart-contracts\\contracts\\UserManagement.sol",
  "compiler": {
    "name": "solc",
    "version": "0.8.19+commit.7dd6d404.Emscripten.clang"
  },
  "schemaVersion": "3.4.16",
  "updatedAt": "2025-12-21T11:32:10.271Z",
  "networkType": "ethereum",
  "devdoc": {
    "kind": "dev",
    "methods": {},
    "title": "UserManagement",
    "version": 1
  },
  "userdoc": {
    "kind": "user",
    "methods": {
      "adminSetProfile(address,string)": {
        "notice": "Admins can set or override metadata for any account (e.g. vendor onboarding)."
      },
      "deleteProfile(address)": {
        "notice": "Remove profile metadata (does not revoke roles, handled by AccessControl)."
      },
      "upsertProfile(string)": {
        "notice": "Upsert the metadata URI for the caller.         Caller must already hold at least one role (client/vendor/admin)."
      }
    },
    "notice": "Stores lightweight on-chain metadata references for registered users.         The actual profile data (names, images) is expected to live off-chain (e.g. IPFS),         and this contract only keeps the URI pointer plus emitted events for indexing.",
    "version": 1
  }
}