{
  "contractName": "VendorApplications",
  "abi": [
    {
      "inputs": [
        {
          "internalType": "address",
          "name": "accessControlAddress",
          "type": "address"
        }
      ],
      "stateMutability": "nonpayable",
      "type": "constructor"
    },
    {
      "anonymous": false,
      "inputs": [
        {
          "indexed": true,
          "internalType": "address",
          "name": "to",
          "type": "address"
        },
        {
          "indexed": false,
          "internalType": "uint256",
          "name": "amount",
          "type": "uint256"
        }
      ],
      "name": "TreasuryWithdrawn",
      "type": "event"
    },
    {
      "anonymous": false,
      "inputs": [
        {
          "indexed": true,
          "internalType": "address",
          "name": "applicant",
          "type": "address"
        },
        {
          "indexed": false,
          "internalType": "string",
          "name": "metadataURI",
          "type": "string"
        },
        {
          "indexed": false,
          "internalType": "uint256",
          "name": "stake",
          "type": "uint256"
        }
      ],
      "name": "VendorApplied",
      "type": "event"
    },
    {
      "anonymous": false,
      "inputs": [
        {
          "indexed": true,
          "internalType": "address",
          "name": "applicant",
          "type": "address"
        }
      ],
      "name": "VendorApproved",
      "type": "event"
    },
    {
      "anonymous": false,
      "inputs": [
        {
          "indexed": true,
          "internalType": "address",
          "name": "applicant",
          "type": "address"
        },
        {
          "indexed": false,
          "internalType": "uint256",
          "name": "refund",
          "type": "uint256"
        }
      ],
      "name": "VendorRejected",
      "type": "event"
    },
    {
      "inputs": [],
      "name": "STAKE_REQUIRED",
      "outputs": [
        {
          "internalType": "uint256",
          "name": "",
          "type": "uint256"
        }
      ],
      "stateMutability": "view",
      "type": "function",
      "constant": true
    },
    {
      "inputs": [],
      "name": "accessControl",
      "outputs": [
        {
          "internalType": "contract AccessControl",
          "name": "",
          "type": "address"
        }
      ],
      "stateMutability": "view",
      "type": "function",
      "constant": true
    },
    {
      "inputs": [
        {
          "internalType": "address",
          "name": "applicant",
          "type": "address"
        }
      ],
      "name": "getApplication",
      "outputs": [
        {
          "components": [
            {
              "internalType": "address",
              "name": "applicant",
              "type": "address"
            },
            {
              "internalType": "string",
              "name": "metadataURI",
              "type": "string"
            },
            {
              "internalType": "uint256",
              "name": "stake",
              "type": "uint256"
            },
            {
              "internalType": "enum VendorApplications.Status",
              "name": "status",
              "type": "uint8"
            }
          ],
          "internalType": "struct VendorApplications.Application",
          "name": "",
          "type": "tuple"
        }
      ],
      "stateMutability": "view",
      "type": "function",
      "constant": true
    },
    {
      "inputs": [
        {
          "internalType": "string",
          "name": "metadataURI",
          "type": "string"
        }
      ],
      "name": "applyAsVendor",
      "outputs": [],
      "stateMutability": "payable",
      "type": "function",
      "payable": true
    },
    {
      "inputs": [
        {
          "internalType": "address",
          "name": "applicant",
          "type": "address"
        }
      ],
      "name": "approveVendor",
      "outputs": [],
      "stateMutability": "nonpayable",
      "type": "function"
    },
    {
      "inputs": [
        {
          "internalType": "address",
          "name": "applicant",
          "type": "address"
        }
      ],
      "name": "rejectVendor",
      "outputs": [],
      "stateMutability": "nonpayable",
      "type": "function"
    },
    {
      "inputs": [
        {
          "internalType": "address payable",
          "name": "to",
          "type": "address"
        },
        {
          "internalType": "uint256",
          "name": "amount",
          "type": "uint256"
        }
      ],
      "name": "withdrawTreasury",
      "outputs": [],
      "stateMutability": "nonpayable",
      "type": "function"
    }
  ],
  "bytecode": "0x60a06040523480156200001157600080fd5b506040516200207f3803806200207f833981810160405281019062000037919062000150565b80600073ffffffffffffffffffffffffffffffffffffffff168173ffffffffffffffffffffffffffffffffffffffff1603620000aa576040517f08c379a0000000000000000000000000000000000000000000000000000000008152600401620000a190620001e3565b60405180910390fd5b8073ffffffffffffffffffffffffffffffffffffffff1660808173ffffffffffffffffffffffffffffffffffffffff1681525050505062000205565b600080fd5b600073ffffffffffffffffffffffffffffffffffffffff82169050919050565b60006200011882620000eb565b9050919050565b6200012a816200010b565b81146200013657600080fd5b50565b6000815190506200014a816200011f565b92915050565b600060208284031215620001695762000168620000e6565b5b6000620001798482850162000139565b91505092915050565b600082825260208201905092915050565b7f416363657373436f6e74726f6c6c65643a207a65726f20616464726573730000600082015250565b6000620001cb601e8362000182565b9150620001d88262000193565b602082019050919050565b60006020820190508181036000830152620001fe81620001bc565b9050919050565b608051611e3b62000244600039600081816101a10152818161046e015281816106b301528181610a0401528181610cd70152610e6a0152611e3b6000f3fe6080604052600436106100705760003560e01c8063879a2d2a1161004e578063879a2d2a146100f4578063c38d7b3914610131578063ce0306c81461014d578063f8a529231461017657610070565b80630d86419a1461007557806313007d551461009e5780633beb7070146100c9575b600080fd5b34801561008157600080fd5b5061009c60048036038101906100979190611055565b61019f565b005b3480156100aa57600080fd5b506100b361046c565b6040516100c091906110f4565b60405180910390f35b3480156100d557600080fd5b506100de610490565b6040516100eb919061111e565b60405180910390f35b34801561010057600080fd5b5061011b60048036038101906101169190611177565b61049c565b604051610128919061132c565b60405180910390f35b61014b600480360381019061014691906113b3565b610621565b005b34801561015957600080fd5b50610174600480360381019061016f9190611177565b610a02565b005b34801561018257600080fd5b5061019d60048036038101906101989190611177565b610cd5565b005b7f000000000000000000000000000000000000000000000000000000000000000073ffffffffffffffffffffffffffffffffffffffff166324d7806c336040518263ffffffff1660e01b81526004016101f8919061140f565b602060405180830381865afa158015610215573d6000803e3d6000fd5b505050506040513d601f19601f820116820180604052508101906102399190611462565b610278576040517f08c379a000000000000000000000000000000000000000000000000000000000815260040161026f906114ec565b60405180910390fd5b600073ffffffffffffffffffffffffffffffffffffffff168273ffffffffffffffffffffffffffffffffffffffff16036102e7576040517f08c379a00000000000000000000000000000000000000000000000000000000081526004016102de90611558565b60405180910390fd5b6000811161032a576040517f08c379a0000000000000000000000000000000000000000000000000000000008152600401610321906115c4565b60405180910390fd5b8047101561036d576040517f08c379a000000000000000000000000000000000000000000000000000000000815260040161036490611656565b60405180910390fd5b60008273ffffffffffffffffffffffffffffffffffffffff1682604051610393906116a7565b60006040518083038185875af1925050503d80600081146103d0576040519150601f19603f3d011682016040523d82523d6000602084013e6103d5565b606091505b5050905080610419576040517f08c379a00000000000000000000000000000000000000000000000000000000081526004016104109061172e565b60405180910390fd5b8273ffffffffffffffffffffffffffffffffffffffff167f41fdd680478135993bc53fb2ffaf9560951b57ef62ff6badd02b61e018b4f17f8360405161045f919061111e565b60405180910390a2505050565b7f000000000000000000000000000000000000000000000000000000000000000081565b674563918244f4000081565b6104a4610f67565b6000808373ffffffffffffffffffffffffffffffffffffffff1673ffffffffffffffffffffffffffffffffffffffff1681526020019081526020016000206040518060800160405290816000820160009054906101000a900473ffffffffffffffffffffffffffffffffffffffff1673ffffffffffffffffffffffffffffffffffffffff1673ffffffffffffffffffffffffffffffffffffffff1681526020016001820180546105539061177d565b80601f016020809104026020016040519081016040528092919081815260200182805461057f9061177d565b80156105cc5780601f106105a1576101008083540402835291602001916105cc565b820191906000526020600020905b8154815290600101906020018083116105af57829003601f168201915b50505050508152602001600282015481526020016003820160009054906101000a900460ff16600381111561060457610603611252565b5b600381111561061657610615611252565b5b815250509050919050565b60008282905011610667576040517f08c379a000000000000000000000000000000000000000000000000000000000815260040161065e90611820565b60405180910390fd5b674563918244f4000034146106b1576040517f08c379a00000000000000000000000000000000000000000000000000000000081526004016106a8906118b2565b60405180910390fd5b7f000000000000000000000000000000000000000000000000000000000000000073ffffffffffffffffffffffffffffffffffffffff1663ee54d54f336040518263ffffffff1660e01b815260040161070a919061140f565b602060405180830381865afa158015610727573d6000803e3d6000fd5b505050506040513d601f19601f8201168201806040525081019061074b9190611462565b1561078b576040517f08c379a000000000000000000000000000000000000000000000000000000000815260040161078290611944565b60405180910390fd5b60008060003373ffffffffffffffffffffffffffffffffffffffff1673ffffffffffffffffffffffffffffffffffffffff1681526020019081526020016000209050600160038111156107e1576107e0611252565b5b8160030160009054906101000a900460ff16600381111561080557610804611252565b5b03610845576040517f08c379a000000000000000000000000000000000000000000000000000000000815260040161083c906119d6565b60405180910390fd5b60405180608001604052803373ffffffffffffffffffffffffffffffffffffffff16815260200184848080601f016020809104026020016040519081016040528093929190818152602001838380828437600081840152601f19601f820116905080830192505050505050508152602001348152602001600160038111156108d0576108cf611252565b5b8152506000803373ffffffffffffffffffffffffffffffffffffffff1673ffffffffffffffffffffffffffffffffffffffff16815260200190815260200160002060008201518160000160006101000a81548173ffffffffffffffffffffffffffffffffffffffff021916908373ffffffffffffffffffffffffffffffffffffffff160217905550602082015181600101908161096d9190611bc7565b506040820151816002015560608201518160030160006101000a81548160ff021916908360038111156109a3576109a2611252565b5b02179055509050503373ffffffffffffffffffffffffffffffffffffffff167f810eef024e65953069e6e0344ad094cc3e05ddff18942c56a261cc93964bb29d8484346040516109f593929190611cd5565b60405180910390a2505050565b7f000000000000000000000000000000000000000000000000000000000000000073ffffffffffffffffffffffffffffffffffffffff166324d7806c336040518263ffffffff1660e01b8152600401610a5b919061140f565b602060405180830381865afa158015610a78573d6000803e3d6000fd5b505050506040513d601f19601f82011682018060405250810190610a9c9190611462565b610adb576040517f08c379a0000000000000000000000000000000000000000000000000000000008152600401610ad2906114ec565b60405180910390fd5b60008060008373ffffffffffffffffffffffffffffffffffffffff1673ffffffffffffffffffffffffffffffffffffffff168152602001908152602001600020905060016003811115610b3157610b30611252565b5b8160030160009054906101000a900460ff166003811115610b5557610b54611252565b5b14610b95576040517f08c379a0000000000000000000000000000000000000000000000000000000008152600401610b8c90611d53565b60405180910390fd5b60008160020154905060038260030160006101000a81548160ff02191690836003811115610bc657610bc5611252565b5b02179055506000826002018190555060008373ffffffffffffffffffffffffffffffffffffffff1682604051610bfb906116a7565b60006040518083038185875af1925050503d8060008114610c38576040519150601f19603f3d011682016040523d82523d6000602084013e610c3d565b606091505b5050905080610c81576040517f08c379a0000000000000000000000000000000000000000000000000000000008152600401610c7890611de5565b60405180910390fd5b8373ffffffffffffffffffffffffffffffffffffffff167f849abc7fe48b5d74652129d20dad79b39a4de5fcd69c8a60194670fb3eb6b03d83604051610cc7919061111e565b60405180910390a250505050565b7f000000000000000000000000000000000000000000000000000000000000000073ffffffffffffffffffffffffffffffffffffffff166324d7806c336040518263ffffffff1660e01b8152600401610d2e919061140f565b602060405180830381865afa158015610d4b573d6000803e3d6000fd5b505050506040513d601f19601f82011682018060405250810190610d6f9190611462565b610dae576040517f08c379a0000000000000000000000000000000000000000000000000000000008152600401610da5906114ec565b60405180910390fd5b60008060008373ffffffffffffffffffffffffffffffffffffffff1673ffffffffffffffffffffffffffffffffffffffff168152602001908152602001600020905060016003811115610e0457610e03611252565b5b8160030160009054906101000a900460ff166003811115610e2857610e27611252565b5b14610e68576040517f08c379a0000000000000000000000000000000000000000000000000000000008152600401610e5f90611d53565b60405180910390fd5b7f000000000000000000000000000000000000000000000000000000000000000073ffffffffffffffffffffffffffffffffffffffff1663254b9a6c836040518263ffffffff1660e01b8152600401610ec1919061140f565b600060405180830381600087803b158015610edb57600080fd5b505af1158015610eef573d6000803e3d6000fd5b5050505060028160030160006101000a81548160ff02191690836003811115610f1b57610f1a611252565b5b02179055508173ffffffffffffffffffffffffffffffffffffffff167f922f98fcca08712aa87d1f5cb1a1e16c1be752c228e5499c967497dd4c6d569d60405160405180910390a25050565b6040518060800160405280600073ffffffffffffffffffffffffffffffffffffffff168152602001606081526020016000815260200160006003811115610fb157610fb0611252565b5b81525090565b600080fd5b600080fd5b600073ffffffffffffffffffffffffffffffffffffffff82169050919050565b6000610fec82610fc1565b9050919050565b610ffc81610fe1565b811461100757600080fd5b50565b60008135905061101981610ff3565b92915050565b6000819050919050565b6110328161101f565b811461103d57600080fd5b50565b60008135905061104f81611029565b92915050565b6000806040838503121561106c5761106b610fb7565b5b600061107a8582860161100a565b925050602061108b85828601611040565b9150509250929050565b6000819050919050565b60006110ba6110b56110b084610fc1565b611095565b610fc1565b9050919050565b60006110cc8261109f565b9050919050565b60006110de826110c1565b9050919050565b6110ee816110d3565b82525050565b600060208201905061110960008301846110e5565b92915050565b6111188161101f565b82525050565b6000602082019050611133600083018461110f565b92915050565b600061114482610fc1565b9050919050565b61115481611139565b811461115f57600080fd5b50565b6000813590506111718161114b565b92915050565b60006020828403121561118d5761118c610fb7565b5b600061119b84828501611162565b91505092915050565b6111ad81611139565b82525050565b600081519050919050565b600082825260208201905092915050565b60005b838110156111ed5780820151818401526020810190506111d2565b60008484015250505050565b6000601f19601f8301169050919050565b6000611215826111b3565b61121f81856111be565b935061122f8185602086016111cf565b611238816111f9565b840191505092915050565b61124c8161101f565b82525050565b7f4e487b7100000000000000000000000000000000000000000000000000000000600052602160045260246000fd5b6004811061129257611291611252565b5b50565b60008190506112a382611281565b919050565b60006112b382611295565b9050919050565b6112c3816112a8565b82525050565b60006080830160008301516112e160008601826111a4565b50602083015184820360208601526112f9828261120a565b915050604083015161130e6040860182611243565b50606083015161132160608601826112ba565b508091505092915050565b6000602082019050818103600083015261134681846112c9565b905092915050565b600080fd5b600080fd5b600080fd5b60008083601f8401126113735761137261134e565b5b8235905067ffffffffffffffff8111156113905761138f611353565b5b6020830191508360018202830111156113ac576113ab611358565b5b9250929050565b600080602083850312156113ca576113c9610fb7565b5b600083013567ffffffffffffffff8111156113e8576113e7610fbc565b5b6113f48582860161135d565b92509250509250929050565b61140981611139565b82525050565b60006020820190506114246000830184611400565b92915050565b60008115159050919050565b61143f8161142a565b811461144a57600080fd5b50565b60008151905061145c81611436565b92915050565b60006020828403121561147857611477610fb7565b5b60006114868482850161144d565b91505092915050565b600082825260208201905092915050565b7f416363657373436f6e74726f6c6c65643a2061646d696e206f6e6c7900000000600082015250565b60006114d6601c8361148f565b91506114e1826114a0565b602082019050919050565b60006020820190508181036000830152611505816114c9565b9050919050565b7f56656e646f724170706c69636174696f6e733a207a65726f2061646472657373600082015250565b600061154260208361148f565b915061154d8261150c565b602082019050919050565b6000602082019050818103600083015261157181611535565b9050919050565b7f56656e646f724170706c69636174696f6e733a207a65726f20616d6f756e7400600082015250565b60006115ae601f8361148f565b91506115b982611578565b602082019050919050565b600060208201905081810360008301526115dd816115a1565b9050919050565b7f56656e646f724170706c69636174696f6e733a20696e73756666696369656e7460008201527f2066756e64730000000000000000000000000000000000000000000000000000602082015250565b600061164060268361148f565b915061164b826115e4565b604082019050919050565b6000602082019050818103600083015261166f81611633565b9050919050565b600081905092915050565b50565b6000611691600083611676565b915061169c82611681565b600082019050919050565b60006116b282611684565b9150819050919050565b7f56656e646f724170706c69636174696f6e733a2077697468647261772066616960008201527f6c65640000000000000000000000000000000000000000000000000000000000602082015250565b600061171860238361148f565b9150611723826116bc565b604082019050919050565b600060208201905081810360008301526117478161170b565b9050919050565b7f4e487b7100000000000000000000000000000000000000000000000000000000600052602260045260246000fd5b6000600282049050600182168061179557607f821691505b6020821081036117a8576117a761174e565b5b50919050565b7f56656e646f724170706c69636174696f6e733a206d657461646174612072657160008201527f7569726564000000000000000000000000000000000000000000000000000000602082015250565b600061180a60258361148f565b9150611815826117ae565b604082019050919050565b60006020820190508181036000830152611839816117fd565b9050919050565b7f56656e646f724170706c69636174696f6e733a20696e636f727265637420737460008201527f616b650000000000000000000000000000000000000000000000000000000000602082015250565b600061189c60238361148f565b91506118a782611840565b604082019050919050565b600060208201905081810360008301526118cb8161188f565b9050919050565b7f56656e646f724170706c69636174696f6e733a20616c72656164792076656e6460008201527f6f72000000000000000000000000000000000000000000000000000000000000602082015250565b600061192e60228361148f565b9150611939826118d2565b604082019050919050565b6000602082019050818103600083015261195d81611921565b9050919050565b7f56656e646f724170706c69636174696f6e733a20616c72656164792070656e6460008201527f696e670000000000000000000000000000000000000000000000000000000000602082015250565b60006119c060238361148f565b91506119cb82611964565b604082019050919050565b600060208201905081810360008301526119ef816119b3565b9050919050565b7f4e487b7100000000000000000000000000000000000000000000000000000000600052604160045260246000fd5b60008190508160005260206000209050919050565b60006020601f8301049050919050565b600082821b905092915050565b600060088302611a877fffffffffffffffffffffffffffffffffffffffffffffffffffffffffffffffff82611a4a565b611a918683611a4a565b95508019841693508086168417925050509392505050565b6000611ac4611abf611aba8461101f565b611095565b61101f565b9050919050565b6000819050919050565b611ade83611aa9565b611af2611aea82611acb565b848454611a57565b825550505050565b600090565b611b07611afa565b611b12818484611ad5565b505050565b5b81811015611b3657611b2b600082611aff565b600181019050611b18565b5050565b601f821115611b7b57611b4c81611a25565b611b5584611a3a565b81016020851015611b64578190505b611b78611b7085611a3a565b830182611b17565b50505b505050565b600082821c905092915050565b6000611b9e60001984600802611b80565b1980831691505092915050565b6000611bb78383611b8d565b9150826002028217905092915050565b611bd0826111b3565b67ffffffffffffffff811115611be957611be86119f6565b5b611bf3825461177d565b611bfe828285611b3a565b600060209050601f831160018114611c315760008415611c1f578287015190505b611c298582611bab565b865550611c91565b601f198416611c3f86611a25565b60005b82811015611c6757848901518255600182019150602085019450602081019050611c42565b86831015611c845784890151611c80601f891682611b8d565b8355505b6001600288020188555050505b505050505050565b82818337600083830152505050565b6000611cb4838561148f565b9350611cc1838584611c99565b611cca836111f9565b840190509392505050565b60006040820190508181036000830152611cf0818587611ca8565b9050611cff602083018461110f565b949350505050565b7f56656e646f724170706c69636174696f6e733a206e6f742070656e64696e6700600082015250565b6000611d3d601f8361148f565b9150611d4882611d07565b602082019050919050565b60006020820190508181036000830152611d6c81611d30565b9050919050565b7f56656e646f724170706c69636174696f6e733a20726566756e64206661696c6560008201527f6400000000000000000000000000000000000000000000000000000000000000602082015250565b6000611dcf60218361148f565b9150611dda82611d73565b604082019050919050565b60006020820190508181036000830152611dfe81611dc2565b905091905056fea2646970667358221220bb877fa2eadcdf1e5362146d6dfb9f9ac7cbf904c5d9d9da947e049fc2af382964736f6c63430008130033",
  "immutableReferences": {
    "420": [
      {
        "length": 32,
        "start": 417
      },
      {
        "length": 32,
        "start": 1134
      },
      {
        "length": 32,
        "start": 1715
      },
      {
        "length": 32,
        "start": 2564
      },
      {
        "length": 32,
        "start": 3287
      },
      {
        "length": 32,
        "start": 3690
      }
    ]
  },
  "source": "// SPDX-License-Identifier: MIT\r\npragma solidity ^0.8.19;\r\n\r\nimport \"./AccessControlled.sol\";\r\n\r\n/**\r\n * @title VendorApplications\r\n * @notice Handles vendor candidatures with a refundable stake and admin approval.\r\n */\r\ncontract VendorApplications is AccessControlled {\r\n    enum Status {\r\n        None,\r\n        Pending,\r\n        Approved,\r\n        Rejected\r\n    }\r\n\r\n    struct Application {\r\n        address applicant;\r\n        string metadataURI;\r\n        uint256 stake;\r\n        Status status;\r\n    }\r\n\r\n    uint256 public constant STAKE_REQUIRED = 5 ether;\r\n\r\n    mapping(address => Application) private _applications;\r\n\r\n    event VendorApplied(address indexed applicant, string metadataURI, uint256 stake);\r\n    event VendorApproved(address indexed applicant);\r\n    event VendorRejected(address indexed applicant, uint256 refund);\r\n    event TreasuryWithdrawn(address indexed to, uint256 amount);\r\n\r\n    constructor(address accessControlAddress) AccessControlled(accessControlAddress) {}\r\n\r\n    function getApplication(address applicant) external view returns (Application memory) {\r\n        return _applications[applicant];\r\n    }\r\n\r\n    function applyAsVendor(string calldata metadataURI) external payable {\r\n        require(bytes(metadataURI).length > 0, \"VendorApplications: metadata required\");\r\n        require(msg.value == STAKE_REQUIRED, \"VendorApplications: incorrect stake\");\r\n        require(!accessControl.isVendor(msg.sender), \"VendorApplications: already vendor\");\r\n\r\n        Application storage existing = _applications[msg.sender];\r\n        require(existing.status != Status.Pending, \"VendorApplications: already pending\");\r\n\r\n        _applications[msg.sender] = Application({\r\n            applicant: msg.sender,\r\n            metadataURI: metadataURI,\r\n            stake: msg.value,\r\n            status: Status.Pending\r\n        });\r\n\r\n        emit VendorApplied(msg.sender, metadataURI, msg.value);\r\n    }\r\n\r\n    function approveVendor(address applicant) external onlyAdmin {\r\n        Application storage application = _applications[applicant];\r\n        require(application.status == Status.Pending, \"VendorApplications: not pending\");\r\n\r\n        accessControl.grantVendorFromModule(applicant);\r\n        application.status = Status.Approved;\r\n\r\n        emit VendorApproved(applicant);\r\n    }\r\n\r\n    function rejectVendor(address applicant) external onlyAdmin {\r\n        Application storage application = _applications[applicant];\r\n        require(application.status == Status.Pending, \"VendorApplications: not pending\");\r\n        uint256 refund = application.stake;\r\n        application.status = Status.Rejected;\r\n        application.stake = 0;\r\n\r\n        (bool ok, ) = applicant.call{value: refund}(\"\");\r\n        require(ok, \"VendorApplications: refund failed\");\r\n\r\n        emit VendorRejected(applicant, refund);\r\n    }\r\n\r\n    function withdrawTreasury(address payable to, uint256 amount) external onlyAdmin {\r\n        require(to != address(0), \"VendorApplications: zero address\");\r\n        require(amount > 0, \"VendorApplications: zero amount\");\r\n        require(address(this).balance >= amount, \"VendorApplications: insufficient funds\");\r\n\r\n        (bool ok, ) = to.call{value: amount}(\"\");\r\n        require(ok, \"VendorApplications: withdraw failed\");\r\n\r\n        emit TreasuryWithdrawn(to, amount);\r\n    }\r\n}\r\n",
  "sourcePath": "C:\\Users\\AdamBo\\Desktop\\ecom-web3\\smart-contracts\\contracts\\VendorApplications.sol",
  "compiler": {
    "name": "solc",
    "version": "0.8.19+commit.7dd6d404.Emscripten.clang"
  },
  "schemaVersion": "3.4.16",
  "updatedAt": "2025-12-17T19:25:19.346Z",
  "networkType": "ethereum",
  "devdoc": {
    "kind": "dev",
    "methods": {},
    "title": "VendorApplications",
    "version": 1
  },
  "userdoc": {
    "kind": "user",
    "methods": {},
    "notice": "Handles vendor candidatures with a refundable stake and admin approval.",
    "version": 1
  }
}